{
  "_format": "hh3-artifact-1",
  "contractName": "FishItStaking",
  "sourceName": "contracts/FishItStaking.sol",
  "abi": [
    {
      "inputs": [
        {
          "internalType": "address",
          "name": "fshtAddr",
          "type": "address"
        },
        {
          "internalType": "address",
          "name": "nftAddr",
          "type": "address"
        },
        {
          "internalType": "address",
          "name": "baitShopAddr",
          "type": "address"
        },
        {
          "internalType": "address",
          "name": "initialOwner",
          "type": "address"
        }
      ],
      "stateMutability": "nonpayable",
      "type": "constructor"
    },
    {
      "inputs": [
        {
          "internalType": "address",
          "name": "owner",
          "type": "address"
        }
      ],
      "name": "OwnableInvalidOwner",
      "type": "error"
    },
    {
      "inputs": [
        {
          "internalType": "address",
          "name": "account",
          "type": "address"
        }
      ],
      "name": "OwnableUnauthorizedAccount",
      "type": "error"
    },
    {
      "inputs": [],
      "name": "ReentrancyGuardReentrantCall",
      "type": "error"
    },
    {
      "anonymous": false,
      "inputs": [
        {
          "indexed": true,
          "internalType": "address",
          "name": "funder",
          "type": "address"
        },
        {
          "indexed": false,
          "internalType": "uint256",
          "name": "amount",
          "type": "uint256"
        }
      ],
      "name": "ContractFunded",
      "type": "event"
    },
    {
      "anonymous": false,
      "inputs": [
        {
          "indexed": true,
          "internalType": "address",
          "name": "user",
          "type": "address"
        },
        {
          "indexed": false,
          "internalType": "uint256",
          "name": "amount",
          "type": "uint256"
        },
        {
          "indexed": false,
          "internalType": "enum FishItTypes.BaitType",
          "name": "baitType",
          "type": "uint8"
        },
        {
          "indexed": false,
          "internalType": "uint256",
          "name": "timestamp",
          "type": "uint256"
        }
      ],
      "name": "FishCaught",
      "type": "event"
    },
    {
      "anonymous": false,
      "inputs": [
        {
          "indexed": true,
          "internalType": "address",
          "name": "user",
          "type": "address"
        },
        {
          "indexed": false,
          "internalType": "uint256",
          "name": "lostAmount",
          "type": "uint256"
        },
        {
          "indexed": false,
          "internalType": "enum FishItTypes.BaitType",
          "name": "lostBait",
          "type": "uint8"
        },
        {
          "indexed": false,
          "internalType": "uint256",
          "name": "timestamp",
          "type": "uint256"
        }
      ],
      "name": "FishEscaped",
      "type": "event"
    },
    {
      "anonymous": false,
      "inputs": [
        {
          "indexed": true,
          "internalType": "address",
          "name": "user",
          "type": "address"
        },
        {
          "indexed": false,
          "internalType": "uint256",
          "name": "amount",
          "type": "uint256"
        },
        {
          "indexed": false,
          "internalType": "enum FishItTypes.BaitType",
          "name": "baitType",
          "type": "uint8"
        },
        {
          "indexed": false,
          "internalType": "uint256",
          "name": "timestamp",
          "type": "uint256"
        }
      ],
      "name": "FishingStarted",
      "type": "event"
    },
    {
      "anonymous": false,
      "inputs": [
        {
          "indexed": true,
          "internalType": "address",
          "name": "user",
          "type": "address"
        },
        {
          "indexed": false,
          "internalType": "uint256",
          "name": "tokenId",
          "type": "uint256"
        },
        {
          "indexed": false,
          "internalType": "uint256",
          "name": "reward",
          "type": "uint256"
        },
        {
          "indexed": false,
          "internalType": "uint256",
          "name": "timestamp",
          "type": "uint256"
        }
      ],
      "name": "NFTClaimed",
      "type": "event"
    },
    {
      "anonymous": false,
      "inputs": [
        {
          "indexed": true,
          "internalType": "address",
          "name": "user",
          "type": "address"
        },
        {
          "indexed": false,
          "internalType": "string",
          "name": "cid",
          "type": "string"
        },
        {
          "indexed": false,
          "internalType": "uint256",
          "name": "timestamp",
          "type": "uint256"
        }
      ],
      "name": "NFTReady",
      "type": "event"
    },
    {
      "anonymous": false,
      "inputs": [
        {
          "indexed": true,
          "internalType": "address",
          "name": "previousOwner",
          "type": "address"
        },
        {
          "indexed": true,
          "internalType": "address",
          "name": "newOwner",
          "type": "address"
        }
      ],
      "name": "OwnershipTransferred",
      "type": "event"
    },
    {
      "anonymous": false,
      "inputs": [
        {
          "indexed": true,
          "internalType": "address",
          "name": "user",
          "type": "address"
        },
        {
          "indexed": false,
          "internalType": "enum FishItStaking.FishingState",
          "name": "newState",
          "type": "uint8"
        },
        {
          "indexed": false,
          "internalType": "uint256",
          "name": "timestamp",
          "type": "uint256"
        }
      ],
      "name": "StateChanged",
      "type": "event"
    },
    {
      "inputs": [],
      "name": "CASTING_DURATION",
      "outputs": [
        {
          "internalType": "uint256",
          "name": "",
          "type": "uint256"
        }
      ],
      "stateMutability": "view",
      "type": "function"
    },
    {
      "inputs": [],
      "name": "REWARD_PERCENTAGE",
      "outputs": [
        {
          "internalType": "uint256",
          "name": "",
          "type": "uint256"
        }
      ],
      "stateMutability": "view",
      "type": "function"
    },
    {
      "inputs": [],
      "name": "STRIKE_WINDOW",
      "outputs": [
        {
          "internalType": "uint256",
          "name": "",
          "type": "uint256"
        }
      ],
      "stateMutability": "view",
      "type": "function"
    },
    {
      "inputs": [],
      "name": "baitShop",
      "outputs": [
        {
          "internalType": "contract FishItBaitShop",
          "name": "",
          "type": "address"
        }
      ],
      "stateMutability": "view",
      "type": "function"
    },
    {
      "inputs": [
        {
          "internalType": "address",
          "name": "user",
          "type": "address"
        }
      ],
      "name": "canEnterStrike",
      "outputs": [
        {
          "internalType": "bool",
          "name": "",
          "type": "bool"
        }
      ],
      "stateMutability": "view",
      "type": "function"
    },
    {
      "inputs": [],
      "name": "claimReward",
      "outputs": [],
      "stateMutability": "nonpayable",
      "type": "function"
    },
    {
      "inputs": [],
      "name": "enterCastingPhase",
      "outputs": [],
      "stateMutability": "nonpayable",
      "type": "function"
    },
    {
      "inputs": [],
      "name": "enterStrikePhase",
      "outputs": [],
      "stateMutability": "nonpayable",
      "type": "function"
    },
    {
      "inputs": [
        {
          "internalType": "address",
          "name": "user",
          "type": "address"
        }
      ],
      "name": "forceTimeout",
      "outputs": [],
      "stateMutability": "nonpayable",
      "type": "function"
    },
    {
      "inputs": [],
      "name": "fsht",
      "outputs": [
        {
          "internalType": "contract IERC20",
          "name": "",
          "type": "address"
        }
      ],
      "stateMutability": "view",
      "type": "function"
    },
    {
      "inputs": [
        {
          "internalType": "uint256",
          "name": "amount",
          "type": "uint256"
        }
      ],
      "name": "fundContract",
      "outputs": [],
      "stateMutability": "nonpayable",
      "type": "function"
    },
    {
      "inputs": [],
      "name": "getBalance",
      "outputs": [
        {
          "internalType": "uint256",
          "name": "",
          "type": "uint256"
        }
      ],
      "stateMutability": "view",
      "type": "function"
    },
    {
      "inputs": [
        {
          "internalType": "address",
          "name": "user",
          "type": "address"
        }
      ],
      "name": "getCastingTimeRemaining",
      "outputs": [
        {
          "internalType": "uint256",
          "name": "",
          "type": "uint256"
        }
      ],
      "stateMutability": "view",
      "type": "function"
    },
    {
      "inputs": [
        {
          "internalType": "address",
          "name": "user",
          "type": "address"
        }
      ],
      "name": "getStakeInfo",
      "outputs": [
        {
          "internalType": "uint256",
          "name": "amount",
          "type": "uint256"
        },
        {
          "internalType": "enum FishItTypes.BaitType",
          "name": "baitType",
          "type": "uint8"
        },
        {
          "internalType": "enum FishItStaking.FishingState",
          "name": "state",
          "type": "uint8"
        },
        {
          "internalType": "uint256",
          "name": "timeInCurrentState",
          "type": "uint256"
        },
        {
          "internalType": "string",
          "name": "nftCID",
          "type": "string"
        }
      ],
      "stateMutability": "view",
      "type": "function"
    },
    {
      "inputs": [
        {
          "internalType": "address",
          "name": "user",
          "type": "address"
        }
      ],
      "name": "getStrikeTimeRemaining",
      "outputs": [
        {
          "internalType": "uint256",
          "name": "",
          "type": "uint256"
        }
      ],
      "stateMutability": "view",
      "type": "function"
    },
    {
      "inputs": [
        {
          "internalType": "address",
          "name": "user",
          "type": "address"
        }
      ],
      "name": "isReadyToClaim",
      "outputs": [
        {
          "internalType": "bool",
          "name": "",
          "type": "bool"
        }
      ],
      "stateMutability": "view",
      "type": "function"
    },
    {
      "inputs": [],
      "name": "nft",
      "outputs": [
        {
          "internalType": "contract FishItNFT",
          "name": "",
          "type": "address"
        }
      ],
      "stateMutability": "view",
      "type": "function"
    },
    {
      "inputs": [],
      "name": "owner",
      "outputs": [
        {
          "internalType": "address",
          "name": "",
          "type": "address"
        }
      ],
      "stateMutability": "view",
      "type": "function"
    },
    {
      "inputs": [
        {
          "internalType": "address",
          "name": "user",
          "type": "address"
        },
        {
          "internalType": "string",
          "name": "cid",
          "type": "string"
        }
      ],
      "name": "prepareNFT",
      "outputs": [],
      "stateMutability": "nonpayable",
      "type": "function"
    },
    {
      "inputs": [],
      "name": "renounceOwnership",
      "outputs": [],
      "stateMutability": "nonpayable",
      "type": "function"
    },
    {
      "inputs": [
        {
          "internalType": "address",
          "name": "",
          "type": "address"
        }
      ],
      "name": "stakes",
      "outputs": [
        {
          "internalType": "uint256",
          "name": "amount",
          "type": "uint256"
        },
        {
          "internalType": "enum FishItTypes.BaitType",
          "name": "baitType",
          "type": "uint8"
        },
        {
          "internalType": "uint256",
          "name": "chummingStartTime",
          "type": "uint256"
        },
        {
          "internalType": "uint256",
          "name": "castingStartTime",
          "type": "uint256"
        },
        {
          "internalType": "uint256",
          "name": "strikeStartTime",
          "type": "uint256"
        },
        {
          "internalType": "enum FishItStaking.FishingState",
          "name": "state",
          "type": "uint8"
        },
        {
          "internalType": "string",
          "name": "nftCID",
          "type": "string"
        }
      ],
      "stateMutability": "view",
      "type": "function"
    },
    {
      "inputs": [
        {
          "internalType": "uint256",
          "name": "amount",
          "type": "uint256"
        },
        {
          "internalType": "enum FishItTypes.BaitType",
          "name": "baitType",
          "type": "uint8"
        }
      ],
      "name": "startFishing",
      "outputs": [],
      "stateMutability": "nonpayable",
      "type": "function"
    },
    {
      "inputs": [
        {
          "internalType": "address",
          "name": "newOwner",
          "type": "address"
        }
      ],
      "name": "transferOwnership",
      "outputs": [],
      "stateMutability": "nonpayable",
      "type": "function"
    },
    {
      "inputs": [],
      "name": "unstake",
      "outputs": [],
      "stateMutability": "nonpayable",
      "type": "function"
    }
  ],
  "bytecode": "0x608060405234801561000f575f5ffd5b5060405161234b38038061234b83398101604081905261002e91610117565b806001600160a01b03811661005c57604051631e4fbdf760e01b81525f600482015260240160405180910390fd5b610065816100ad565b505060018055600280546001600160a01b039485166001600160a01b031991821617909155600380549385169382169390931790925560048054919093169116179055610168565b5f80546001600160a01b038381166001600160a01b0319831681178455604051919092169283917f8be0079c531659141344cd1fd0a4f28419497f9722a3daafe3b4186f6b6457e09190a35050565b80516001600160a01b0381168114610112575f5ffd5b919050565b5f5f5f5f6080858703121561012a575f5ffd5b610133856100fc565b9350610141602086016100fc565b925061014f604086016100fc565b915061015d606086016100fc565b905092959194509250565b6121d6806101755f395ff3fe608060405234801561000f575f5ffd5b5060043610610153575f3560e01c8063715018a6116100bf578063c345315311610079578063c3453153146102b8578063d961adf4146102dc578063f1a97ff0146102e4578063f2fde38b146102f7578063f63fb1a01461030a578063fc72b1ed14610312575f5ffd5b8063715018a61461026a57806374966eb51461027257806375b112031461028557806383601a88146102985780638da5cb5b146102a0578063b88a802f146102b0575f5ffd5b80633519a2f8116101105780633519a2f8146101f357806339702eee146102065780633aa274b1146102195780633f785cfa1461023c57806347ccca021461024f5780635f273ab614610262575f5ffd5b80630c2f3f4c146101575780630f967ea31461016c57806312065fe01461019c578063166ba1db146101b257806316934fc4146101c55780632def6620146101eb575b5f5ffd5b61016a610165366004611c6e565b61031a565b005b60045461017f906001600160a01b031681565b6040516001600160a01b0390911681526020015b60405180910390f35b6101a4610570565b604051908152602001610193565b61016a6101c0366004611c87565b6105df565b6101d86101d3366004611c6e565b6109e8565b6040516101939796959493929190611d1e565b61016a610ab3565b61016a610201366004611d6f565b610d15565b60025461017f906001600160a01b031681565b61022c610227366004611c6e565b610e08565b6040519015158152602001610193565b6101a461024a366004611c6e565b610f91565b60035461017f906001600160a01b031681565b61016a61113a565b61016a611244565b61016a610280366004611d9a565b611255565b6101a4610293366004611c6e565b6113e0565b6101a4601e81565b5f546001600160a01b031661017f565b61016a611581565b6102cb6102c6366004611c6e565b611838565b604051610193959493929190611e5e565b61016a611a34565b61022c6102f2366004611c6e565b611aef565b61016a610305366004611c6e565b611b27565b6101a4603c81565b6101a4600181565b6001600160a01b0381165f9081526005602052604090206003600582015460ff16600481111561034c5761034c611cb8565b146103945760405162461bcd60e51b81526020600482015260136024820152724e6f7420696e20737472696b6520706861736560681b60448201526064015b60405180910390fd5b5f8160040154426103a59190611eb5565b9050601e81116103e95760405162461bcd60e51b815260206004820152600f60248201526e5374696c6c20696e2077696e646f7760881b604482015260640161038b565b8154600183015460025460ff909116906001600160a01b031663a9059cbb6104185f546001600160a01b031690565b865460405160e084901b6001600160e01b03191681526001600160a01b03909216600483015260248201526044016020604051808303815f875af1158015610462573d5f5f3e3d5ffd5b505050506040513d601f19601f820116820180604052508101906104869190611ece565b6104c95760405162461bcd60e51b8152602060048201526014602482015273109d5c9b881d1c985b9cd9995c8819985a5b195960621b604482015260640161038b565b6001600160a01b0385165f908152600560208190526040822082815560018101805460ff199081169091556002820184905560038201849055600482018490559181018054909216909155906105226006830182611c09565b5050846001600160a01b03167f2462f820e823e0ec03e98bbc3744e1e3880586b26b6038025b6f47c034920dd683834260405161056193929190611eed565b60405180910390a25050505050565b6002546040516370a0823160e01b81523060048201525f916001600160a01b0316906370a0823190602401602060405180830381865afa1580156105b6573d5f5f3e3d5ffd5b505050506040513d601f19601f820116820180604052508101906105da9190611f0f565b905090565b6105e7611b64565b670de0b6b3a76400008210156106375760405162461bcd60e51b8152602060048201526015602482015274135a5b9a5b5d5b481cdd185ad94e880c481194d215605a1b604482015260640161038b565b335f9081526005602081905260408220015460ff16600481111561065d5761065d611cb8565b1461069c5760405162461bcd60e51b815260206004820152600f60248201526e416c72656164792066697368696e6760881b604482015260640161038b565b60048054604051630be7964760e01b81525f926001600160a01b0390921691630be79647916106cf913391879101611f26565b602060405180830381865afa1580156106ea573d5f5f3e3d5ffd5b505050506040513d601f19601f8201168201806040525081019061070e9190611f0f565b1161074f5760405162461bcd60e51b81526020600482015260116024820152704e6f206261697420617661696c61626c6560781b604482015260640161038b565b6002546040516323b872dd60e01b8152336004820152306024820152604481018490526001600160a01b03909116906323b872dd906064016020604051808303815f875af11580156107a3573d5f5f3e3d5ffd5b505050506040513d601f19601f820116820180604052508101906107c79190611ece565b61080b5760405162461bcd60e51b815260206004820152601560248201527414dd185ad9481d1c985b9cd9995c8819985a5b1959605a1b604482015260640161038b565b60048054604051631717bb5d60e21b81526001600160a01b0390911691635c5eed749161083c913391869101611f26565b5f604051808303815f87803b158015610853575f5ffd5b505af1158015610865573d5f5f3e3d5ffd5b505050506040518060e0016040528083815260200182600381111561088c5761088c611cb8565b81524260208201525f6040820181905260608201526080016001815260408051602081810183525f80835293810191909152338352600581529120825181559082015160018083018054909160ff19909116908360038111156108f1576108f1611cb8565b021790555060408201518160020155606082015181600301556080820151816004015560a0820151816005015f6101000a81548160ff0219169083600481111561093d5761093d611cb8565b021790555060c082015160068201906109569082611fc7565b50506040513391507f28337571c2befbea3d1c1d3cae6ab8f9698bdea47c6783ddba74e791244fda479061098f90859085904290611eed565b60405180910390a2336001600160a01b03167f3a8f361ec899a3f6a354e90e12595eea27ed7b95b8c14fa75e3b2e6b4bed9d536001426040516109d3929190612082565b60405180910390a26109e460018055565b5050565b600560208190525f91825260409091208054600182015460028301546003840154600485015495850154600686018054959760ff95861697949693959094921692610a3290611f43565b80601f0160208091040260200160405190810160405280929190818152602001828054610a5e90611f43565b8015610aa95780601f10610a8057610100808354040283529160200191610aa9565b820191905f5260205f20905b815481529060010190602001808311610a8c57829003601f168201915b5050505050905087565b610abb611b64565b335f9081526005602052604090206003600582015460ff166004811115610ae457610ae4611cb8565b14610b275760405162461bcd60e51b81526020600482015260136024820152724e6f7420696e20737472696b6520706861736560681b604482015260640161038b565b5f816004015442610b389190611eb5565b9050601e8111610b8e578154600183015460405133927f96ad55a3dd6b12d25424e1e60360f795d083c8ffea47ac014649278e94e3680d92610b819260ff909116904290611eed565b60405180910390a2610d08565b8154600183015460025460ff909116906001600160a01b031663a9059cbb610bbd5f546001600160a01b031690565b865460405160e084901b6001600160e01b03191681526001600160a01b03909216600483015260248201526044016020604051808303815f875af1158015610c07573d5f5f3e3d5ffd5b505050506040513d601f19601f82011682018060405250810190610c2b9190611ece565b610c6e5760405162461bcd60e51b8152602060048201526014602482015273109d5c9b881d1c985b9cd9995c8819985a5b195960621b604482015260640161038b565b335f908152600560208190526040822082815560018101805460ff19908116909155600282018490556003820184905560048201849055918101805490921690915590610cbe6006830182611c09565b5050336001600160a01b03167f2462f820e823e0ec03e98bbc3744e1e3880586b26b6038025b6f47c034920dd6838342604051610cfd93929190611eed565b60405180910390a250505b5050610d1360018055565b565b610d1d611b8e565b6002546040516323b872dd60e01b8152336004820152306024820152604481018390526001600160a01b03909116906323b872dd906064016020604051808303815f875af1158015610d71573d5f5f3e3d5ffd5b505050506040513d601f19601f82011682018060405250810190610d959190611ece565b610dcf5760405162461bcd60e51b815260206004820152600b60248201526a119d5b990819985a5b195960aa1b604482015260640161038b565b60405181815233907f0939f6f4877faf071412e527bc4c6d0bd65ad077e52b57334f7765265647a7f1906020015b60405180910390a250565b6001600160a01b0381165f908152600560209081526040808320815160e08101909252805482526001810154849383019060ff166003811115610e4d57610e4d611cb8565b6003811115610e5e57610e5e611cb8565b815260028201546020820152600382015460408201526004808301546060830152600583015460809092019160ff1690811115610e9d57610e9d611cb8565b6004811115610eae57610eae611cb8565b8152602001600682018054610ec290611f43565b80601f0160208091040260200160405190810160405280929190818152602001828054610eee90611f43565b8015610f395780601f10610f1057610100808354040283529160200191610f39565b820191905f5260205f20905b815481529060010190602001808311610f1c57829003601f168201915b505050505081525050905060026004811115610f5757610f57611cb8565b8160a001516004811115610f6d57610f6d611cb8565b148015610f8a5750603c8160600151610f86919061209d565b4210155b9392505050565b6001600160a01b0381165f908152600560209081526040808320815160e08101909252805482526001810154849383019060ff166003811115610fd657610fd6611cb8565b6003811115610fe757610fe7611cb8565b815260028201546020820152600382015460408201526004808301546060830152600583015460809092019160ff169081111561102657611026611cb8565b600481111561103757611037611cb8565b815260200160068201805461104b90611f43565b80601f016020809104026020016040519081016040528092919081815260200182805461107790611f43565b80156110c25780601f10611099576101008083540402835291602001916110c2565b820191905f5260205f20905b8154815290600101906020018083116110a557829003601f168201915b5050505050815250509050600360048111156110e0576110e0611cb8565b8160a0015160048111156110f6576110f6611cb8565b1461110357505f92915050565b5f8160800151426111149190611eb5565b9050601e811061112757505f9392505050565b61113281601e611eb5565b949350505050565b335f9081526005602052604090206002600582015460ff16600481111561116357611163611cb8565b146111a75760405162461bcd60e51b81526020600482015260146024820152734e6f7420696e2063617374696e6720706861736560601b604482015260640161038b565b603c81600301546111b8919061209d565b4210156111f75760405162461bcd60e51b815260206004820152600d60248201526c576169742031206d696e75746560981b604482015260640161038b565b426004820181905560058201805460ff1916600390811790915560405133927f3a8f361ec899a3f6a354e90e12595eea27ed7b95b8c14fa75e3b2e6b4bed9d5392610dfd92909190612082565b61124c611b8e565b610d135f611bba565b61125d611b8e565b611265611b64565b6001600160a01b0382165f9081526005602052604090206003600582015460ff16600481111561129757611297611cb8565b146112e45760405162461bcd60e51b815260206004820152601860248201527f55736572206861736e277420756e7374616b6564207965740000000000000000604482015260640161038b565b80546113225760405162461bcd60e51b815260206004820152600d60248201526c496e76616c6964207374616b6560981b604482015260640161038b565b80600601805461133190611f43565b1590506113735760405162461bcd60e51b815260206004820152601060248201526f105b1c9958591e481c1c995c185c995960821b604482015260640161038b565b600681016113818382611fc7565b5060058101805460ff191660041790556040516001600160a01b038416907f2edbf6bf26fccd807847b74ed8d463735d8223bba3dc28c67f305f8911bdf814906113ce90859042906120b0565b60405180910390a2506109e460018055565b6001600160a01b0381165f908152600560209081526040808320815160e08101909252805482526001810154849383019060ff16600381111561142557611425611cb8565b600381111561143657611436611cb8565b815260028201546020820152600382015460408201526004808301546060830152600583015460809092019160ff169081111561147557611475611cb8565b600481111561148657611486611cb8565b815260200160068201805461149a90611f43565b80601f01602080910402602001604051908101604052809291908181526020018280546114c690611f43565b80156115115780601f106114e857610100808354040283529160200191611511565b820191905f5260205f20905b8154815290600101906020018083116114f457829003601f168201915b50505050508152505090506002600481111561152f5761152f611cb8565b8160a00151600481111561154557611545611cb8565b1461155257505f92915050565b5f8160600151426115639190611eb5565b9050603c811061157657505f9392505050565b61113281603c611eb5565b611589611b64565b335f9081526005602052604090206004600582015460ff1660048111156115b2576115b2611cb8565b146115f35760405162461bcd60e51b8152602060048201526011602482015270139195081b9bdd081c9958591e481e595d607a1b604482015260640161038b565b5f81600601805461160390611f43565b9050116116455760405162461bcd60e51b815260206004820152601060248201526f4e6f2043494420617661696c61626c6560801b604482015260640161038b565b600354604051636902622f60e11b81525f916001600160a01b03169063d204c45e9061167a90339060068701906004016120d1565b6020604051808303815f875af1158015611696573d5f5f3e3d5ffd5b505050506040513d601f19601f820116820180604052508101906116ba9190611f0f565b90505f60646001845f01546116cf919061216a565b6116d99190612181565b90505f81845f01546116eb919061209d565b335f908152600560208190526040822082815560018101805460ff19908116909155600282018490556003820184905560048201849055918101805490921690915591925061173d6006830182611c09565b505060025460405163a9059cbb60e01b8152336004820152602481018390526001600160a01b039091169063a9059cbb906044016020604051808303815f875af115801561178d573d5f5f3e3d5ffd5b505050506040513d601f19601f820116820180604052508101906117b19190611ece565b6117f65760405162461bcd60e51b815260206004820152601660248201527514995dd85c99081d1c985b9cd9995c8819985a5b195960521b604482015260640161038b565b6040805184815260208101849052429181019190915233907f7213dc8f744bdcd10af666fc43835c0838e2716eef399c3c6548dba41858bbbf90606001610cfd565b6001600160a01b0381165f908152600560209081526040808320815160e08101909252805482526001810154849384938493606093859383019060ff16600381111561188657611886611cb8565b600381111561189757611897611cb8565b815260028201546020820152600382015460408201526004808301546060830152600583015460809092019160ff16908111156118d6576118d6611cb8565b60048111156118e7576118e7611cb8565b81526020016006820180546118fb90611f43565b80601f016020809104026020016040519081016040528092919081815260200182805461192790611f43565b80156119725780601f1061194957610100808354040283529160200191611972565b820191905f5260205f20905b81548152906001019060200180831161195557829003601f168201915b50505091909252509192505f9150600190508260a00151600481111561199a5761199a611cb8565b036119b55760408201516119ae9042611eb5565b9050611a10565b60028260a0015160048111156119cd576119cd611cb8565b036119e15760608201516119ae9042611eb5565b60038260a0015160048111156119f9576119f9611cb8565b03611a10576080820151611a0d9042611eb5565b90505b8151602083015160a084015160c090940151919a9099509297509095509350915050565b335f9081526005602052604090206001600582015460ff166004811115611a5d57611a5d611cb8565b14611aa25760405162461bcd60e51b81526020600482015260156024820152744e6f7420696e206368756d6d696e6720706861736560581b604482015260640161038b565b426003820181905560058201805460ff1916600290811790915560405133927f3a8f361ec899a3f6a354e90e12595eea27ed7b95b8c14fa75e3b2e6b4bed9d5392610dfd92909190612082565b6001600160a01b0381165f9081526005602081905260408220015460049060ff1681811115611b2057611b20611cb8565b1492915050565b611b2f611b8e565b6001600160a01b038116611b5857604051631e4fbdf760e01b81525f600482015260240161038b565b611b6181611bba565b50565b600260015403611b8757604051633ee5aeb560e01b815260040160405180910390fd5b6002600155565b5f546001600160a01b03163314610d135760405163118cdaa760e01b815233600482015260240161038b565b5f80546001600160a01b038381166001600160a01b0319831681178455604051919092169283917f8be0079c531659141344cd1fd0a4f28419497f9722a3daafe3b4186f6b6457e09190a35050565b508054611c1590611f43565b5f825580601f10611c24575050565b601f0160209004905f5260205f2090810190611b6191905b80821115611c4f575f8155600101611c3c565b5090565b80356001600160a01b0381168114611c69575f5ffd5b919050565b5f60208284031215611c7e575f5ffd5b610f8a82611c53565b5f5f60408385031215611c98575f5ffd5b82359150602083013560048110611cad575f5ffd5b809150509250929050565b634e487b7160e01b5f52602160045260245ffd5b60048110611cdc57611cdc611cb8565b9052565b60058110611cdc57611cdc611cb8565b5f81518084528060208401602086015e5f602082860101526020601f19601f83011685010191505092915050565b878152611d2e6020820188611ccc565b856040820152846060820152836080820152611d4d60a0820184611ce0565b60e060c08201525f611d6260e0830184611cf0565b9998505050505050505050565b5f60208284031215611d7f575f5ffd5b5035919050565b634e487b7160e01b5f52604160045260245ffd5b5f5f60408385031215611dab575f5ffd5b611db483611c53565b9150602083013567ffffffffffffffff811115611dcf575f5ffd5b8301601f81018513611ddf575f5ffd5b803567ffffffffffffffff811115611df957611df9611d86565b604051601f8201601f19908116603f0116810167ffffffffffffffff81118282101715611e2857611e28611d86565b604052818152828201602001871015611e3f575f5ffd5b816020840160208301375f602083830101528093505050509250929050565b858152611e6e6020820186611ccc565b611e7b6040820185611ce0565b82606082015260a060808201525f611e9660a0830184611cf0565b979650505050505050565b634e487b7160e01b5f52601160045260245ffd5b81810381811115611ec857611ec8611ea1565b92915050565b5f60208284031215611ede575f5ffd5b81518015158114610f8a575f5ffd5b83815260608101611f016020830185611ccc565b826040830152949350505050565b5f60208284031215611f1f575f5ffd5b5051919050565b6001600160a01b038316815260408101610f8a6020830184611ccc565b600181811c90821680611f5757607f821691505b602082108103611f7557634e487b7160e01b5f52602260045260245ffd5b50919050565b601f821115611fc257805f5260205f20601f840160051c81016020851015611fa05750805b601f840160051c820191505b81811015611fbf575f8155600101611fac565b50505b505050565b815167ffffffffffffffff811115611fe157611fe1611d86565b611ff581611fef8454611f43565b84611f7b565b6020601f821160018114612027575f83156120105750848201515b5f19600385901b1c1916600184901b178455611fbf565b5f84815260208120601f198516915b828110156120565787850151825560209485019460019092019101612036565b508482101561207357868401515f19600387901b60f8161c191681555b50505050600190811b01905550565b604081016120908285611ce0565b8260208301529392505050565b80820180821115611ec857611ec8611ea1565b604081525f6120c26040830185611cf0565b90508260208301529392505050565b6001600160a01b03831681526040602082015281545f9081906120f381611f43565b806040860152600182165f8114612111576001811461212d5761215e565b60ff1983166060870152606082151560051b870101935061215e565b865f5260205f205f5b8381101561215557815488820160600152600190910190602001612136565b87016060019450505b50919695505050505050565b8082028115828204841417611ec857611ec8611ea1565b5f8261219b57634e487b7160e01b5f52601260045260245ffd5b50049056fea2646970667358221220334fa324796a1b9541a2eff8a476aed06b26d2d2b58b31ec8c3a3ae12fc741d164736f6c634300081e0033",
  "linkReferences": {},
  "deployedLinkReferences": {},
  "immutableReferences": {},
  "inputSourceName": "project/contracts/FishItStaking.sol",
  "buildInfoId": "solc-0_8_30-f1f90415aec1819b46aa050f7cd5d855d6f7a907"
}