{
  "_format": "hh3-artifact-1",
  "contractName": "FishItFaucet",
  "sourceName": "contracts/FishItFaucet.sol",
  "abi": [
    {
      "inputs": [
        {
          "internalType": "address",
          "name": "fshtAddr",
          "type": "address"
        },
        {
          "internalType": "address",
          "name": "initialOwner",
          "type": "address"
        }
      ],
      "stateMutability": "nonpayable",
      "type": "constructor"
    },
    {
      "inputs": [
        {
          "internalType": "address",
          "name": "owner",
          "type": "address"
        }
      ],
      "name": "OwnableInvalidOwner",
      "type": "error"
    },
    {
      "inputs": [
        {
          "internalType": "address",
          "name": "account",
          "type": "address"
        }
      ],
      "name": "OwnableUnauthorizedAccount",
      "type": "error"
    },
    {
      "anonymous": false,
      "inputs": [
        {
          "indexed": true,
          "internalType": "address",
          "name": "user",
          "type": "address"
        },
        {
          "indexed": false,
          "internalType": "uint256",
          "name": "amount",
          "type": "uint256"
        },
        {
          "indexed": false,
          "internalType": "uint256",
          "name": "nextClaimTime",
          "type": "uint256"
        }
      ],
      "name": "Claimed",
      "type": "event"
    },
    {
      "anonymous": false,
      "inputs": [
        {
          "indexed": true,
          "internalType": "address",
          "name": "funder",
          "type": "address"
        },
        {
          "indexed": false,
          "internalType": "uint256",
          "name": "amount",
          "type": "uint256"
        }
      ],
      "name": "Funded",
      "type": "event"
    },
    {
      "anonymous": false,
      "inputs": [
        {
          "indexed": true,
          "internalType": "address",
          "name": "previousOwner",
          "type": "address"
        },
        {
          "indexed": true,
          "internalType": "address",
          "name": "newOwner",
          "type": "address"
        }
      ],
      "name": "OwnershipTransferred",
      "type": "event"
    },
    {
      "inputs": [],
      "name": "CLAIM_AMOUNT",
      "outputs": [
        {
          "internalType": "uint256",
          "name": "",
          "type": "uint256"
        }
      ],
      "stateMutability": "view",
      "type": "function"
    },
    {
      "inputs": [],
      "name": "CLAIM_COOLDOWN",
      "outputs": [
        {
          "internalType": "uint256",
          "name": "",
          "type": "uint256"
        }
      ],
      "stateMutability": "view",
      "type": "function"
    },
    {
      "inputs": [
        {
          "internalType": "address",
          "name": "user",
          "type": "address"
        }
      ],
      "name": "canClaim",
      "outputs": [
        {
          "internalType": "bool",
          "name": "",
          "type": "bool"
        }
      ],
      "stateMutability": "view",
      "type": "function"
    },
    {
      "inputs": [],
      "name": "claim",
      "outputs": [],
      "stateMutability": "nonpayable",
      "type": "function"
    },
    {
      "inputs": [],
      "name": "fsht",
      "outputs": [
        {
          "internalType": "contract IERC20",
          "name": "",
          "type": "address"
        }
      ],
      "stateMutability": "view",
      "type": "function"
    },
    {
      "inputs": [
        {
          "internalType": "uint256",
          "name": "amount",
          "type": "uint256"
        }
      ],
      "name": "fundFaucet",
      "outputs": [],
      "stateMutability": "nonpayable",
      "type": "function"
    },
    {
      "inputs": [],
      "name": "getBalance",
      "outputs": [
        {
          "internalType": "uint256",
          "name": "",
          "type": "uint256"
        }
      ],
      "stateMutability": "view",
      "type": "function"
    },
    {
      "inputs": [
        {
          "internalType": "address",
          "name": "user",
          "type": "address"
        }
      ],
      "name": "getNextClaimTime",
      "outputs": [
        {
          "internalType": "uint256",
          "name": "",
          "type": "uint256"
        }
      ],
      "stateMutability": "view",
      "type": "function"
    },
    {
      "inputs": [
        {
          "internalType": "address",
          "name": "",
          "type": "address"
        }
      ],
      "name": "lastClaimTime",
      "outputs": [
        {
          "internalType": "uint256",
          "name": "",
          "type": "uint256"
        }
      ],
      "stateMutability": "view",
      "type": "function"
    },
    {
      "inputs": [],
      "name": "owner",
      "outputs": [
        {
          "internalType": "address",
          "name": "",
          "type": "address"
        }
      ],
      "stateMutability": "view",
      "type": "function"
    },
    {
      "inputs": [],
      "name": "renounceOwnership",
      "outputs": [],
      "stateMutability": "nonpayable",
      "type": "function"
    },
    {
      "inputs": [
        {
          "internalType": "address",
          "name": "newOwner",
          "type": "address"
        }
      ],
      "name": "transferOwnership",
      "outputs": [],
      "stateMutability": "nonpayable",
      "type": "function"
    }
  ],
  "bytecode": "0x608060405234801561000f575f5ffd5b506040516107b83803806107b883398101604081905261002e916100f6565b806001600160a01b03811661005c57604051631e4fbdf760e01b81525f600482015260240160405180910390fd5b6100658161008c565b5050600180546001600160a01b0319166001600160a01b0392909216919091179055610127565b5f80546001600160a01b038381166001600160a01b0319831681178455604051919092169283917f8be0079c531659141344cd1fd0a4f28419497f9722a3daafe3b4186f6b6457e09190a35050565b80516001600160a01b03811681146100f1575f5ffd5b919050565b5f5f60408385031215610107575f5ffd5b610110836100db565b915061011e602084016100db565b90509250929050565b610684806101345f395ff3fe608060405234801561000f575f5ffd5b50600436106100b1575f3560e01c80638da5cb5b1161006e5780638da5cb5b1461012657806393c30c0f14610136578063ae0140b414610149578063b77cf9c61461015c578063bf3506c11461017b578063f2fde38b1461019e575f5ffd5b806312065fe0146100b5578063270ef385146100d057806337c909ec146100df57806339702eee146100e95780634e71d92d14610114578063715018a61461011e575b5f5ffd5b6100bd6101b1565b6040519081526020015b60405180910390f35b6100bd678ac7230489e8000081565b6100bd6201518081565b6001546100fc906001600160a01b031681565b6040516001600160a01b0390911681526020016100c7565b61011c610220565b005b61011c610387565b5f546001600160a01b03166100fc565b6100bd6101443660046105b5565b61039a565b61011c6101573660046105e2565b6103dc565b6100bd61016a3660046105b5565b60026020525f908152604090205481565b61018e6101893660046105b5565b6104ce565b60405190151581526020016100c7565b61011c6101ac3660046105b5565b6104fd565b6001546040516370a0823160e01b81523060048201525f916001600160a01b0316906370a0823190602401602060405180830381865afa1580156101f7573d5f5f3e3d5ffd5b505050506040513d601f19601f8201168201806040525081019061021b91906105f9565b905090565b610229336104ce565b61026c5760405162461bcd60e51b815260206004820152600f60248201526e436f6f6c646f776e2061637469766560881b60448201526064015b60405180910390fd5b335f8181526002602052604090819020429055600154905163a9059cbb60e01b81526004810192909252678ac7230489e8000060248301526001600160a01b03169063a9059cbb906044016020604051808303815f875af11580156102d3573d5f5f3e3d5ffd5b505050506040513d601f19601f820116820180604052508101906102f79190610610565b6103355760405162461bcd60e51b815260206004820152600f60248201526e151c985b9cd9995c8819985a5b1959608a1b6044820152606401610263565b337f987d620f307ff6b94d58743cb7a7509f24071586a77759b77c2d4e29f75a2f9a678ac7230489e8000061036d620151804261062f565b6040805192835260208301919091520160405180910390a2565b61038f61053a565b6103985f610566565b565b5f6103a4826104ce565b156103b0575042919050565b6001600160a01b0382165f908152600260205260409020546103d690620151809061062f565b92915050565b6103e461053a565b6001546040516323b872dd60e01b8152336004820152306024820152604481018390526001600160a01b03909116906323b872dd906064016020604051808303815f875af1158015610438573d5f5f3e3d5ffd5b505050506040513d601f19601f8201168201806040525081019061045c9190610610565b6104965760405162461bcd60e51b815260206004820152600b60248201526a119d5b990819985a5b195960aa1b6044820152606401610263565b60405181815233907f5af8184bef8e4b45eb9f6ed7734d04da38ced226495548f46e0c8ff8d7d9a5249060200160405180910390a250565b6001600160a01b0381165f908152600260205260408120546104f490620151809061062f565b42101592915050565b61050561053a565b6001600160a01b03811661052e57604051631e4fbdf760e01b81525f6004820152602401610263565b61053781610566565b50565b5f546001600160a01b031633146103985760405163118cdaa760e01b8152336004820152602401610263565b5f80546001600160a01b038381166001600160a01b0319831681178455604051919092169283917f8be0079c531659141344cd1fd0a4f28419497f9722a3daafe3b4186f6b6457e09190a35050565b5f602082840312156105c5575f5ffd5b81356001600160a01b03811681146105db575f5ffd5b9392505050565b5f602082840312156105f2575f5ffd5b5035919050565b5f60208284031215610609575f5ffd5b5051919050565b5f60208284031215610620575f5ffd5b815180151581146105db575f5ffd5b808201808211156103d657634e487b7160e01b5f52601160045260245ffdfea26469706673582212205e0ace709565671b177685a04f5a594dd3b2138f4a1db28d5c8a3020c3a0fd8a64736f6c634300081e0033",
  "linkReferences": {},
  "deployedLinkReferences": {},
  "immutableReferences": {},
  "inputSourceName": "project/contracts/FishItFaucet.sol",
  "buildInfoId": "solc-0_8_30-9df7c3fae2146e7352cd2a438aebffb3df80c979"
}