{
  "_format": "hh3-artifact-1",
  "contractName": "FishItNFT",
  "sourceName": "contracts/FishItNFT.sol",
  "abi": [
    {
      "inputs": [
        {
          "internalType": "address",
          "name": "initialOwner",
          "type": "address"
        }
      ],
      "stateMutability": "nonpayable",
      "type": "constructor"
    },
    {
      "inputs": [
        {
          "internalType": "address",
          "name": "sender",
          "type": "address"
        },
        {
          "internalType": "uint256",
          "name": "tokenId",
          "type": "uint256"
        },
        {
          "internalType": "address",
          "name": "owner",
          "type": "address"
        }
      ],
      "name": "ERC721IncorrectOwner",
      "type": "error"
    },
    {
      "inputs": [
        {
          "internalType": "address",
          "name": "operator",
          "type": "address"
        },
        {
          "internalType": "uint256",
          "name": "tokenId",
          "type": "uint256"
        }
      ],
      "name": "ERC721InsufficientApproval",
      "type": "error"
    },
    {
      "inputs": [
        {
          "internalType": "address",
          "name": "approver",
          "type": "address"
        }
      ],
      "name": "ERC721InvalidApprover",
      "type": "error"
    },
    {
      "inputs": [
        {
          "internalType": "address",
          "name": "operator",
          "type": "address"
        }
      ],
      "name": "ERC721InvalidOperator",
      "type": "error"
    },
    {
      "inputs": [
        {
          "internalType": "address",
          "name": "owner",
          "type": "address"
        }
      ],
      "name": "ERC721InvalidOwner",
      "type": "error"
    },
    {
      "inputs": [
        {
          "internalType": "address",
          "name": "receiver",
          "type": "address"
        }
      ],
      "name": "ERC721InvalidReceiver",
      "type": "error"
    },
    {
      "inputs": [
        {
          "internalType": "address",
          "name": "sender",
          "type": "address"
        }
      ],
      "name": "ERC721InvalidSender",
      "type": "error"
    },
    {
      "inputs": [
        {
          "internalType": "uint256",
          "name": "tokenId",
          "type": "uint256"
        }
      ],
      "name": "ERC721NonexistentToken",
      "type": "error"
    },
    {
      "inputs": [
        {
          "internalType": "address",
          "name": "owner",
          "type": "address"
        }
      ],
      "name": "OwnableInvalidOwner",
      "type": "error"
    },
    {
      "inputs": [
        {
          "internalType": "address",
          "name": "account",
          "type": "address"
        }
      ],
      "name": "OwnableUnauthorizedAccount",
      "type": "error"
    },
    {
      "anonymous": false,
      "inputs": [
        {
          "indexed": true,
          "internalType": "address",
          "name": "owner",
          "type": "address"
        },
        {
          "indexed": true,
          "internalType": "address",
          "name": "approved",
          "type": "address"
        },
        {
          "indexed": true,
          "internalType": "uint256",
          "name": "tokenId",
          "type": "uint256"
        }
      ],
      "name": "Approval",
      "type": "event"
    },
    {
      "anonymous": false,
      "inputs": [
        {
          "indexed": true,
          "internalType": "address",
          "name": "owner",
          "type": "address"
        },
        {
          "indexed": true,
          "internalType": "address",
          "name": "operator",
          "type": "address"
        },
        {
          "indexed": false,
          "internalType": "bool",
          "name": "approved",
          "type": "bool"
        }
      ],
      "name": "ApprovalForAll",
      "type": "event"
    },
    {
      "anonymous": false,
      "inputs": [
        {
          "indexed": false,
          "internalType": "uint256",
          "name": "_fromTokenId",
          "type": "uint256"
        },
        {
          "indexed": false,
          "internalType": "uint256",
          "name": "_toTokenId",
          "type": "uint256"
        }
      ],
      "name": "BatchMetadataUpdate",
      "type": "event"
    },
    {
      "anonymous": false,
      "inputs": [
        {
          "indexed": false,
          "internalType": "uint256",
          "name": "_tokenId",
          "type": "uint256"
        }
      ],
      "name": "MetadataUpdate",
      "type": "event"
    },
    {
      "anonymous": false,
      "inputs": [
        {
          "indexed": true,
          "internalType": "address",
          "name": "minter",
          "type": "address"
        },
        {
          "indexed": false,
          "internalType": "bool",
          "name": "status",
          "type": "bool"
        }
      ],
      "name": "MinterSet",
      "type": "event"
    },
    {
      "anonymous": false,
      "inputs": [
        {
          "indexed": true,
          "internalType": "address",
          "name": "previousOwner",
          "type": "address"
        },
        {
          "indexed": true,
          "internalType": "address",
          "name": "newOwner",
          "type": "address"
        }
      ],
      "name": "OwnershipTransferred",
      "type": "event"
    },
    {
      "anonymous": false,
      "inputs": [
        {
          "indexed": true,
          "internalType": "address",
          "name": "from",
          "type": "address"
        },
        {
          "indexed": true,
          "internalType": "address",
          "name": "to",
          "type": "address"
        },
        {
          "indexed": true,
          "internalType": "uint256",
          "name": "tokenId",
          "type": "uint256"
        }
      ],
      "name": "Transfer",
      "type": "event"
    },
    {
      "inputs": [
        {
          "internalType": "address",
          "name": "to",
          "type": "address"
        },
        {
          "internalType": "uint256",
          "name": "tokenId",
          "type": "uint256"
        }
      ],
      "name": "approve",
      "outputs": [],
      "stateMutability": "nonpayable",
      "type": "function"
    },
    {
      "inputs": [
        {
          "internalType": "address",
          "name": "owner",
          "type": "address"
        }
      ],
      "name": "balanceOf",
      "outputs": [
        {
          "internalType": "uint256",
          "name": "",
          "type": "uint256"
        }
      ],
      "stateMutability": "view",
      "type": "function"
    },
    {
      "inputs": [],
      "name": "basePinataGateway",
      "outputs": [
        {
          "internalType": "string",
          "name": "",
          "type": "string"
        }
      ],
      "stateMutability": "view",
      "type": "function"
    },
    {
      "inputs": [
        {
          "internalType": "uint256",
          "name": "tokenId",
          "type": "uint256"
        }
      ],
      "name": "getApproved",
      "outputs": [
        {
          "internalType": "address",
          "name": "",
          "type": "address"
        }
      ],
      "stateMutability": "view",
      "type": "function"
    },
    {
      "inputs": [
        {
          "internalType": "address",
          "name": "owner",
          "type": "address"
        },
        {
          "internalType": "address",
          "name": "operator",
          "type": "address"
        }
      ],
      "name": "isApprovedForAll",
      "outputs": [
        {
          "internalType": "bool",
          "name": "",
          "type": "bool"
        }
      ],
      "stateMutability": "view",
      "type": "function"
    },
    {
      "inputs": [
        {
          "internalType": "address",
          "name": "",
          "type": "address"
        }
      ],
      "name": "minters",
      "outputs": [
        {
          "internalType": "bool",
          "name": "",
          "type": "bool"
        }
      ],
      "stateMutability": "view",
      "type": "function"
    },
    {
      "inputs": [],
      "name": "name",
      "outputs": [
        {
          "internalType": "string",
          "name": "",
          "type": "string"
        }
      ],
      "stateMutability": "view",
      "type": "function"
    },
    {
      "inputs": [],
      "name": "owner",
      "outputs": [
        {
          "internalType": "address",
          "name": "",
          "type": "address"
        }
      ],
      "stateMutability": "view",
      "type": "function"
    },
    {
      "inputs": [
        {
          "internalType": "uint256",
          "name": "tokenId",
          "type": "uint256"
        }
      ],
      "name": "ownerOf",
      "outputs": [
        {
          "internalType": "address",
          "name": "",
          "type": "address"
        }
      ],
      "stateMutability": "view",
      "type": "function"
    },
    {
      "inputs": [],
      "name": "renounceOwnership",
      "outputs": [],
      "stateMutability": "nonpayable",
      "type": "function"
    },
    {
      "inputs": [
        {
          "internalType": "address",
          "name": "to",
          "type": "address"
        },
        {
          "internalType": "string",
          "name": "uri",
          "type": "string"
        }
      ],
      "name": "safeMint",
      "outputs": [
        {
          "internalType": "uint256",
          "name": "",
          "type": "uint256"
        }
      ],
      "stateMutability": "nonpayable",
      "type": "function"
    },
    {
      "inputs": [
        {
          "internalType": "address",
          "name": "from",
          "type": "address"
        },
        {
          "internalType": "address",
          "name": "to",
          "type": "address"
        },
        {
          "internalType": "uint256",
          "name": "tokenId",
          "type": "uint256"
        }
      ],
      "name": "safeTransferFrom",
      "outputs": [],
      "stateMutability": "nonpayable",
      "type": "function"
    },
    {
      "inputs": [
        {
          "internalType": "address",
          "name": "from",
          "type": "address"
        },
        {
          "internalType": "address",
          "name": "to",
          "type": "address"
        },
        {
          "internalType": "uint256",
          "name": "tokenId",
          "type": "uint256"
        },
        {
          "internalType": "bytes",
          "name": "data",
          "type": "bytes"
        }
      ],
      "name": "safeTransferFrom",
      "outputs": [],
      "stateMutability": "nonpayable",
      "type": "function"
    },
    {
      "inputs": [
        {
          "internalType": "address",
          "name": "operator",
          "type": "address"
        },
        {
          "internalType": "bool",
          "name": "approved",
          "type": "bool"
        }
      ],
      "name": "setApprovalForAll",
      "outputs": [],
      "stateMutability": "nonpayable",
      "type": "function"
    },
    {
      "inputs": [
        {
          "internalType": "address",
          "name": "minter",
          "type": "address"
        },
        {
          "internalType": "bool",
          "name": "status",
          "type": "bool"
        }
      ],
      "name": "setMinter",
      "outputs": [],
      "stateMutability": "nonpayable",
      "type": "function"
    },
    {
      "inputs": [
        {
          "internalType": "bytes4",
          "name": "interfaceId",
          "type": "bytes4"
        }
      ],
      "name": "supportsInterface",
      "outputs": [
        {
          "internalType": "bool",
          "name": "",
          "type": "bool"
        }
      ],
      "stateMutability": "view",
      "type": "function"
    },
    {
      "inputs": [],
      "name": "symbol",
      "outputs": [
        {
          "internalType": "string",
          "name": "",
          "type": "string"
        }
      ],
      "stateMutability": "view",
      "type": "function"
    },
    {
      "inputs": [
        {
          "internalType": "uint256",
          "name": "tokenId",
          "type": "uint256"
        }
      ],
      "name": "tokenURI",
      "outputs": [
        {
          "internalType": "string",
          "name": "",
          "type": "string"
        }
      ],
      "stateMutability": "view",
      "type": "function"
    },
    {
      "inputs": [],
      "name": "totalSupply",
      "outputs": [
        {
          "internalType": "uint256",
          "name": "",
          "type": "uint256"
        }
      ],
      "stateMutability": "view",
      "type": "function"
    },
    {
      "inputs": [
        {
          "internalType": "address",
          "name": "from",
          "type": "address"
        },
        {
          "internalType": "address",
          "name": "to",
          "type": "address"
        },
        {
          "internalType": "uint256",
          "name": "tokenId",
          "type": "uint256"
        }
      ],
      "name": "transferFrom",
      "outputs": [],
      "stateMutability": "nonpayable",
      "type": "function"
    },
    {
      "inputs": [
        {
          "internalType": "address",
          "name": "newOwner",
          "type": "address"
        }
      ],
      "name": "transferOwnership",
      "outputs": [],
      "stateMutability": "nonpayable",
      "type": "function"
    }
  ],
  "bytecode": "0x60e0604052602260808181529061193260a03960089061001f90826101cf565b5034801561002b575f5ffd5b5060405161195438038061195483398101604081905261004a91610289565b806040518060400160405280600a815260200169119a5cda125d0813919560b21b8152506040518060400160405280600481526020016308c92a6960e31b815250815f908161009991906101cf565b5060016100a682826101cf565b5050506001600160a01b0381166100d657604051631e4fbdf760e01b81525f600482015260240160405180910390fd5b6100df816100e6565b50506102b6565b600780546001600160a01b038381166001600160a01b0319831681179093556040519116919082907f8be0079c531659141344cd1fd0a4f28419497f9722a3daafe3b4186f6b6457e0905f90a35050565b634e487b7160e01b5f52604160045260245ffd5b600181811c9082168061015f57607f821691505b60208210810361017d57634e487b7160e01b5f52602260045260245ffd5b50919050565b601f8211156101ca57805f5260205f20601f840160051c810160208510156101a85750805b601f840160051c820191505b818110156101c7575f81556001016101b4565b50505b505050565b81516001600160401b038111156101e8576101e8610137565b6101fc816101f6845461014b565b84610183565b6020601f82116001811461022e575f83156102175750848201515b5f19600385901b1c1916600184901b1784556101c7565b5f84815260208120601f198516915b8281101561025d578785015182556020948501946001909201910161023d565b508482101561027a57868401515f19600387901b60f8161c191681555b50505050600190811b01905550565b5f60208284031215610299575f5ffd5b81516001600160a01b03811681146102af575f5ffd5b9392505050565b61166f806102c35f395ff3fe608060405234801561000f575f5ffd5b5060043610610132575f3560e01c80638da5cb5b116100b4578063cf456ae711610079578063cf456ae71461026b578063d204c45e1461027e578063d269e12914610291578063e985e9c514610299578063f2fde38b146102ac578063f46eccc4146102bf575f5ffd5b80638da5cb5b1461021957806395d89b411461022a578063a22cb46514610232578063b88d4fde14610245578063c87b56dd14610258575f5ffd5b806323b872dd116100fa57806323b872dd146101c557806342842e0e146101d85780636352211e146101eb57806370a08231146101fe578063715018a614610211575f5ffd5b806301ffc9a71461013657806306fdde031461015e578063081812fc14610173578063095ea7b31461019e57806318160ddd146101b3575b5f5ffd5b61014961014436600461110e565b6102e1565b60405190151581526020015b60405180910390f35b6101666102f1565b6040516101559190611157565b610186610181366004611169565b610380565b6040516001600160a01b039091168152602001610155565b6101b16101ac36600461119b565b6103a7565b005b6009545b604051908152602001610155565b6101b16101d33660046111c3565b6103b6565b6101b16101e63660046111c3565b610444565b6101866101f9366004611169565b610463565b6101b761020c3660046111fd565b61046d565b6101b16104b2565b6007546001600160a01b0316610186565b6101666104c5565b6101b1610240366004611216565b6104d4565b6101b16102533660046112da565b6104df565b610166610266366004611169565b6104f7565b6101b1610279366004611216565b610584565b6101b761028c366004611351565b6105ea565b6101666106a0565b6101496102a73660046113af565b61072c565b6101b16102ba3660046111fd565b610759565b6101496102cd3660046111fd565b600a6020525f908152604090205460ff1681565b5f6102eb82610796565b92915050565b60605f80546102ff906113e0565b80601f016020809104026020016040519081016040528092919081815260200182805461032b906113e0565b80156103765780601f1061034d57610100808354040283529160200191610376565b820191905f5260205f20905b81548152906001019060200180831161035957829003601f168201915b5050505050905090565b5f61038a826107ba565b505f828152600460205260409020546001600160a01b03166102eb565b6103b28282336107f2565b5050565b6001600160a01b0382166103e457604051633250574960e11b81525f60048201526024015b60405180910390fd5b5f6103f08383336107ff565b9050836001600160a01b0316816001600160a01b03161461043e576040516364283d7b60e01b81526001600160a01b03808616600483015260248201849052821660448201526064016103db565b50505050565b61045e83838360405180602001604052805f8152506104df565b505050565b5f6102eb826107ba565b5f6001600160a01b038216610497576040516322718ad960e21b81525f60048201526024016103db565b506001600160a01b03165f9081526003602052604090205490565b6104ba6108f1565b6104c35f61091e565b565b6060600180546102ff906113e0565b6103b233838361096f565b6104ea8484846103b6565b61043e3385858585610a0d565b60605f61050383610463565b6001600160a01b03160361054d5760405162461bcd60e51b81526020600482015260116024820152702737b732bc34b9ba32b73a103a37b5b2b760791b60448201526064016103db565b5f61055783610b35565b905060088160405160200161056d92919061142f565b604051602081830303815290604052915050919050565b61058c6108f1565b6001600160a01b0382165f818152600a6020908152604091829020805460ff191685151590811790915591519182527f583b0aa0e528532caf4b907c11d7a8158a122fe2a6fb80cd9b09776ebea8d92d910160405180910390a25050565b5f6105fd6007546001600160a01b031690565b6001600160a01b0316336001600160a01b0316148061062a5750335f908152600a602052604090205460ff165b61066f5760405162461bcd60e51b8152602060048201526016602482015275139bdd08185d5d1a1bdc9a5e9959081d1bc81b5a5b9d60521b60448201526064016103db565b600980545f918261067f836114ab565b91905055905061068f8482610c40565b6106998184610c59565b9392505050565b600880546106ad906113e0565b80601f01602080910402602001604051908101604052809291908181526020018280546106d9906113e0565b80156107245780601f106106fb57610100808354040283529160200191610724565b820191905f5260205f20905b81548152906001019060200180831161070757829003601f168201915b505050505081565b6001600160a01b039182165f90815260056020908152604080832093909416825291909152205460ff1690565b6107616108f1565b6001600160a01b03811661078a57604051631e4fbdf760e01b81525f60048201526024016103db565b6107938161091e565b50565b5f6001600160e01b03198216632483248360e11b14806102eb57506102eb82610ca8565b5f818152600260205260408120546001600160a01b0316806102eb57604051637e27328960e01b8152600481018490526024016103db565b61045e8383836001610cf7565b5f828152600260205260408120546001600160a01b039081169083161561082b5761082b818486610dfb565b6001600160a01b03811615610865576108465f855f5f610cf7565b6001600160a01b0381165f90815260036020526040902080545f190190555b6001600160a01b03851615610893576001600160a01b0385165f908152600360205260409020805460010190555b5f8481526002602052604080822080546001600160a01b0319166001600160a01b0389811691821790925591518793918516917fddf252ad1be2c89b69c2b068fc378daa952ba7f163c4a11628f55a4df523b3ef91a4949350505050565b6007546001600160a01b031633146104c35760405163118cdaa760e01b81523360048201526024016103db565b600780546001600160a01b038381166001600160a01b0319831681179093556040519116919082907f8be0079c531659141344cd1fd0a4f28419497f9722a3daafe3b4186f6b6457e0905f90a35050565b6001600160a01b0382166109a157604051630b61174360e31b81526001600160a01b03831660048201526024016103db565b6001600160a01b038381165f81815260056020908152604080832094871680845294825291829020805460ff191686151590811790915591519182527f17307eab39ab6107e8899845ad3d59bd9653f200f220920489ca2b5937696c31910160405180910390a3505050565b6001600160a01b0383163b15610b2e57604051630a85bd0160e11b81526001600160a01b0384169063150b7a0290610a4f9088908890879087906004016114cf565b6020604051808303815f875af1925050508015610a89575060408051601f3d908101601f19168201909252610a869181019061150b565b60015b610af0573d808015610ab6576040519150601f19603f3d011682016040523d82523d5f602084013e610abb565b606091505b5080515f03610ae857604051633250574960e11b81526001600160a01b03851660048201526024016103db565b805160208201fd5b6001600160e01b03198116630a85bd0160e11b14610b2c57604051633250574960e11b81526001600160a01b03851660048201526024016103db565b505b5050505050565b6060610b40826107ba565b505f8281526006602052604081208054610b59906113e0565b80601f0160208091040260200160405190810160405280929190818152602001828054610b85906113e0565b8015610bd05780601f10610ba757610100808354040283529160200191610bd0565b820191905f5260205f20905b815481529060010190602001808311610bb357829003601f168201915b505050505090505f610bec60408051602081019091525f815290565b905080515f03610bfd575092915050565b815115610c2f578082604051602001610c17929190611526565b60405160208183030381529060405292505050919050565b610c3884610e5f565b949350505050565b6103b2828260405180602001604052805f815250610eb9565b5f828152600660205260409020610c70828261157e565b506040518281527ff8e1a15aba9398e019f0b49df1a4fde98ee17ae345cb5f6b5e2c27f5033e8ce79060200160405180910390a15050565b5f6001600160e01b031982166380ac58cd60e01b1480610cd857506001600160e01b03198216635b5e139f60e01b145b806102eb57506301ffc9a760e01b6001600160e01b03198316146102eb565b8080610d0b57506001600160a01b03821615155b15610dcc575f610d1a846107ba565b90506001600160a01b03831615801590610d465750826001600160a01b0316816001600160a01b031614155b8015610d595750610d57818461072c565b155b15610d825760405163a9fbf51f60e01b81526001600160a01b03841660048201526024016103db565b8115610dca5783856001600160a01b0316826001600160a01b03167f8c5be1e5ebec7d5bd14f71427d1e84f3dd0314c0f7b2291e5b200ac8c7c3b92560405160405180910390a45b505b50505f90815260046020526040902080546001600160a01b0319166001600160a01b0392909216919091179055565b610e06838383610ed0565b61045e576001600160a01b038316610e3457604051637e27328960e01b8152600481018290526024016103db565b60405163177e802f60e01b81526001600160a01b0383166004820152602481018290526044016103db565b6060610e6a826107ba565b505f610e8060408051602081019091525f815290565b90505f815111610e9e5760405180602001604052805f815250610699565b80610ea884610f31565b60405160200161056d929190611526565b610ec38383610fc1565b61045e335f858585610a0d565b5f6001600160a01b03831615801590610c385750826001600160a01b0316846001600160a01b03161480610f095750610f09848461072c565b80610c385750505f908152600460205260409020546001600160a01b03908116911614919050565b60605f610f3d83611022565b60010190505f8167ffffffffffffffff811115610f5c57610f5c61124f565b6040519080825280601f01601f191660200182016040528015610f86576020820181803683370190505b5090508181016020015b5f19016f181899199a1a9b1b9c1cb0b131b232b360811b600a86061a8153600a8504945084610f9057509392505050565b6001600160a01b038216610fea57604051633250574960e11b81525f60048201526024016103db565b5f610ff683835f6107ff565b90506001600160a01b0381161561045e576040516339e3563760e11b81525f60048201526024016103db565b5f8072184f03e93ff9f4daa797ed6e38ed64bf6a1f0160401b83106110605772184f03e93ff9f4daa797ed6e38ed64bf6a1f0160401b830492506040015b6d04ee2d6d415b85acef8100000000831061108c576d04ee2d6d415b85acef8100000000830492506020015b662386f26fc1000083106110aa57662386f26fc10000830492506010015b6305f5e10083106110c2576305f5e100830492506008015b61271083106110d657612710830492506004015b606483106110e8576064830492506002015b600a83106102eb5760010192915050565b6001600160e01b031981168114610793575f5ffd5b5f6020828403121561111e575f5ffd5b8135610699816110f9565b5f81518084528060208401602086015e5f602082860101526020601f19601f83011685010191505092915050565b602081525f6106996020830184611129565b5f60208284031215611179575f5ffd5b5035919050565b80356001600160a01b0381168114611196575f5ffd5b919050565b5f5f604083850312156111ac575f5ffd5b6111b583611180565b946020939093013593505050565b5f5f5f606084860312156111d5575f5ffd5b6111de84611180565b92506111ec60208501611180565b929592945050506040919091013590565b5f6020828403121561120d575f5ffd5b61069982611180565b5f5f60408385031215611227575f5ffd5b61123083611180565b915060208301358015158114611244575f5ffd5b809150509250929050565b634e487b7160e01b5f52604160045260245ffd5b5f5f67ffffffffffffffff84111561127d5761127d61124f565b50604051601f19601f85018116603f0116810181811067ffffffffffffffff821117156112ac576112ac61124f565b6040528381529050808284018510156112c3575f5ffd5b838360208301375f60208583010152509392505050565b5f5f5f5f608085870312156112ed575f5ffd5b6112f685611180565b935061130460208601611180565b925060408501359150606085013567ffffffffffffffff811115611326575f5ffd5b8501601f81018713611336575f5ffd5b61134587823560208401611263565b91505092959194509250565b5f5f60408385031215611362575f5ffd5b61136b83611180565b9150602083013567ffffffffffffffff811115611386575f5ffd5b8301601f81018513611396575f5ffd5b6113a585823560208401611263565b9150509250929050565b5f5f604083850312156113c0575f5ffd5b6113c983611180565b91506113d760208401611180565b90509250929050565b600181811c908216806113f457607f821691505b60208210810361141257634e487b7160e01b5f52602260045260245ffd5b50919050565b5f81518060208401855e5f93019283525090919050565b5f5f845461143c816113e0565b600182168015611453576001811461146857611495565b60ff1983168652811515820286019350611495565b875f5260205f205f5b8381101561148d57815488820152600190910190602001611471565b505081860193505b5050506114a28185611418565b95945050505050565b5f600182016114c857634e487b7160e01b5f52601160045260245ffd5b5060010190565b6001600160a01b03858116825284166020820152604081018390526080606082018190525f9061150190830184611129565b9695505050505050565b5f6020828403121561151b575f5ffd5b8151610699816110f9565b5f610c386115348386611418565b84611418565b601f82111561045e57805f5260205f20601f840160051c8101602085101561155f5750805b601f840160051c820191505b81811015610b2e575f815560010161156b565b815167ffffffffffffffff8111156115985761159861124f565b6115ac816115a684546113e0565b8461153a565b6020601f8211600181146115de575f83156115c75750848201515b5f19600385901b1c1916600184901b178455610b2e565b5f84815260208120601f198516915b8281101561160d57878501518255602094850194600190920191016115ed565b508482101561162a57868401515f19600387901b60f8161c191681555b50505050600190811b0190555056fea26469706673582212204d5a5d44c93375c12edb379c9edcf86987ecc5ae062141e80c253e27dc44149864736f6c634300081e003368747470733a2f2f676174657761792e70696e6174612e636c6f75642f697066732f",
  "linkReferences": {},
  "deployedLinkReferences": {},
  "immutableReferences": {},
  "inputSourceName": "project/contracts/FishItNFT.sol",
  "buildInfoId": "solc-0_8_30-5c15aa5ce9401b8e01f47ecafe81d3d1f8132c61"
}