{
  "_format": "hh3-artifact-1",
  "contractName": "FishItNFT",
  "sourceName": "contracts/FishItNFT.sol",
  "abi": [
    {
      "inputs": [
        {
          "internalType": "address",
          "name": "initialOwner",
          "type": "address"
        }
      ],
      "stateMutability": "nonpayable",
      "type": "constructor"
    },
    {
      "inputs": [
        {
          "internalType": "address",
          "name": "sender",
          "type": "address"
        },
        {
          "internalType": "uint256",
          "name": "tokenId",
          "type": "uint256"
        },
        {
          "internalType": "address",
          "name": "owner",
          "type": "address"
        }
      ],
      "name": "ERC721IncorrectOwner",
      "type": "error"
    },
    {
      "inputs": [
        {
          "internalType": "address",
          "name": "operator",
          "type": "address"
        },
        {
          "internalType": "uint256",
          "name": "tokenId",
          "type": "uint256"
        }
      ],
      "name": "ERC721InsufficientApproval",
      "type": "error"
    },
    {
      "inputs": [
        {
          "internalType": "address",
          "name": "approver",
          "type": "address"
        }
      ],
      "name": "ERC721InvalidApprover",
      "type": "error"
    },
    {
      "inputs": [
        {
          "internalType": "address",
          "name": "operator",
          "type": "address"
        }
      ],
      "name": "ERC721InvalidOperator",
      "type": "error"
    },
    {
      "inputs": [
        {
          "internalType": "address",
          "name": "owner",
          "type": "address"
        }
      ],
      "name": "ERC721InvalidOwner",
      "type": "error"
    },
    {
      "inputs": [
        {
          "internalType": "address",
          "name": "receiver",
          "type": "address"
        }
      ],
      "name": "ERC721InvalidReceiver",
      "type": "error"
    },
    {
      "inputs": [
        {
          "internalType": "address",
          "name": "sender",
          "type": "address"
        }
      ],
      "name": "ERC721InvalidSender",
      "type": "error"
    },
    {
      "inputs": [
        {
          "internalType": "uint256",
          "name": "tokenId",
          "type": "uint256"
        }
      ],
      "name": "ERC721NonexistentToken",
      "type": "error"
    },
    {
      "inputs": [
        {
          "internalType": "address",
          "name": "owner",
          "type": "address"
        }
      ],
      "name": "OwnableInvalidOwner",
      "type": "error"
    },
    {
      "inputs": [
        {
          "internalType": "address",
          "name": "account",
          "type": "address"
        }
      ],
      "name": "OwnableUnauthorizedAccount",
      "type": "error"
    },
    {
      "anonymous": false,
      "inputs": [
        {
          "indexed": true,
          "internalType": "address",
          "name": "owner",
          "type": "address"
        },
        {
          "indexed": true,
          "internalType": "address",
          "name": "approved",
          "type": "address"
        },
        {
          "indexed": true,
          "internalType": "uint256",
          "name": "tokenId",
          "type": "uint256"
        }
      ],
      "name": "Approval",
      "type": "event"
    },
    {
      "anonymous": false,
      "inputs": [
        {
          "indexed": true,
          "internalType": "address",
          "name": "owner",
          "type": "address"
        },
        {
          "indexed": true,
          "internalType": "address",
          "name": "operator",
          "type": "address"
        },
        {
          "indexed": false,
          "internalType": "bool",
          "name": "approved",
          "type": "bool"
        }
      ],
      "name": "ApprovalForAll",
      "type": "event"
    },
    {
      "anonymous": false,
      "inputs": [
        {
          "indexed": false,
          "internalType": "uint256",
          "name": "_fromTokenId",
          "type": "uint256"
        },
        {
          "indexed": false,
          "internalType": "uint256",
          "name": "_toTokenId",
          "type": "uint256"
        }
      ],
      "name": "BatchMetadataUpdate",
      "type": "event"
    },
    {
      "anonymous": false,
      "inputs": [
        {
          "indexed": false,
          "internalType": "uint256",
          "name": "_tokenId",
          "type": "uint256"
        }
      ],
      "name": "MetadataUpdate",
      "type": "event"
    },
    {
      "anonymous": false,
      "inputs": [
        {
          "indexed": true,
          "internalType": "address",
          "name": "minter",
          "type": "address"
        },
        {
          "indexed": false,
          "internalType": "bool",
          "name": "status",
          "type": "bool"
        }
      ],
      "name": "MinterSet",
      "type": "event"
    },
    {
      "anonymous": false,
      "inputs": [
        {
          "indexed": true,
          "internalType": "address",
          "name": "previousOwner",
          "type": "address"
        },
        {
          "indexed": true,
          "internalType": "address",
          "name": "newOwner",
          "type": "address"
        }
      ],
      "name": "OwnershipTransferred",
      "type": "event"
    },
    {
      "anonymous": false,
      "inputs": [
        {
          "indexed": true,
          "internalType": "address",
          "name": "from",
          "type": "address"
        },
        {
          "indexed": true,
          "internalType": "address",
          "name": "to",
          "type": "address"
        },
        {
          "indexed": true,
          "internalType": "uint256",
          "name": "tokenId",
          "type": "uint256"
        }
      ],
      "name": "Transfer",
      "type": "event"
    },
    {
      "inputs": [
        {
          "internalType": "address",
          "name": "to",
          "type": "address"
        },
        {
          "internalType": "uint256",
          "name": "tokenId",
          "type": "uint256"
        }
      ],
      "name": "approve",
      "outputs": [],
      "stateMutability": "nonpayable",
      "type": "function"
    },
    {
      "inputs": [
        {
          "internalType": "address",
          "name": "owner",
          "type": "address"
        }
      ],
      "name": "balanceOf",
      "outputs": [
        {
          "internalType": "uint256",
          "name": "",
          "type": "uint256"
        }
      ],
      "stateMutability": "view",
      "type": "function"
    },
    {
      "inputs": [],
      "name": "basePinataGateway",
      "outputs": [
        {
          "internalType": "string",
          "name": "",
          "type": "string"
        }
      ],
      "stateMutability": "view",
      "type": "function"
    },
    {
      "inputs": [
        {
          "internalType": "uint256",
          "name": "tokenId",
          "type": "uint256"
        }
      ],
      "name": "getApproved",
      "outputs": [
        {
          "internalType": "address",
          "name": "",
          "type": "address"
        }
      ],
      "stateMutability": "view",
      "type": "function"
    },
    {
      "inputs": [
        {
          "internalType": "address",
          "name": "owner",
          "type": "address"
        },
        {
          "internalType": "address",
          "name": "operator",
          "type": "address"
        }
      ],
      "name": "isApprovedForAll",
      "outputs": [
        {
          "internalType": "bool",
          "name": "",
          "type": "bool"
        }
      ],
      "stateMutability": "view",
      "type": "function"
    },
    {
      "inputs": [
        {
          "internalType": "address",
          "name": "",
          "type": "address"
        }
      ],
      "name": "minters",
      "outputs": [
        {
          "internalType": "bool",
          "name": "",
          "type": "bool"
        }
      ],
      "stateMutability": "view",
      "type": "function"
    },
    {
      "inputs": [],
      "name": "name",
      "outputs": [
        {
          "internalType": "string",
          "name": "",
          "type": "string"
        }
      ],
      "stateMutability": "view",
      "type": "function"
    },
    {
      "inputs": [],
      "name": "owner",
      "outputs": [
        {
          "internalType": "address",
          "name": "",
          "type": "address"
        }
      ],
      "stateMutability": "view",
      "type": "function"
    },
    {
      "inputs": [
        {
          "internalType": "uint256",
          "name": "tokenId",
          "type": "uint256"
        }
      ],
      "name": "ownerOf",
      "outputs": [
        {
          "internalType": "address",
          "name": "",
          "type": "address"
        }
      ],
      "stateMutability": "view",
      "type": "function"
    },
    {
      "inputs": [],
      "name": "renounceOwnership",
      "outputs": [],
      "stateMutability": "nonpayable",
      "type": "function"
    },
    {
      "inputs": [
        {
          "internalType": "address",
          "name": "to",
          "type": "address"
        },
        {
          "internalType": "string",
          "name": "uri",
          "type": "string"
        }
      ],
      "name": "safeMint",
      "outputs": [
        {
          "internalType": "uint256",
          "name": "",
          "type": "uint256"
        }
      ],
      "stateMutability": "nonpayable",
      "type": "function"
    },
    {
      "inputs": [
        {
          "internalType": "address",
          "name": "from",
          "type": "address"
        },
        {
          "internalType": "address",
          "name": "to",
          "type": "address"
        },
        {
          "internalType": "uint256",
          "name": "tokenId",
          "type": "uint256"
        }
      ],
      "name": "safeTransferFrom",
      "outputs": [],
      "stateMutability": "nonpayable",
      "type": "function"
    },
    {
      "inputs": [
        {
          "internalType": "address",
          "name": "from",
          "type": "address"
        },
        {
          "internalType": "address",
          "name": "to",
          "type": "address"
        },
        {
          "internalType": "uint256",
          "name": "tokenId",
          "type": "uint256"
        },
        {
          "internalType": "bytes",
          "name": "data",
          "type": "bytes"
        }
      ],
      "name": "safeTransferFrom",
      "outputs": [],
      "stateMutability": "nonpayable",
      "type": "function"
    },
    {
      "inputs": [
        {
          "internalType": "address",
          "name": "operator",
          "type": "address"
        },
        {
          "internalType": "bool",
          "name": "approved",
          "type": "bool"
        }
      ],
      "name": "setApprovalForAll",
      "outputs": [],
      "stateMutability": "nonpayable",
      "type": "function"
    },
    {
      "inputs": [
        {
          "internalType": "address",
          "name": "minter",
          "type": "address"
        },
        {
          "internalType": "bool",
          "name": "status",
          "type": "bool"
        }
      ],
      "name": "setMinter",
      "outputs": [],
      "stateMutability": "nonpayable",
      "type": "function"
    },
    {
      "inputs": [
        {
          "internalType": "bytes4",
          "name": "interfaceId",
          "type": "bytes4"
        }
      ],
      "name": "supportsInterface",
      "outputs": [
        {
          "internalType": "bool",
          "name": "",
          "type": "bool"
        }
      ],
      "stateMutability": "view",
      "type": "function"
    },
    {
      "inputs": [],
      "name": "symbol",
      "outputs": [
        {
          "internalType": "string",
          "name": "",
          "type": "string"
        }
      ],
      "stateMutability": "view",
      "type": "function"
    },
    {
      "inputs": [
        {
          "internalType": "uint256",
          "name": "tokenId",
          "type": "uint256"
        }
      ],
      "name": "tokenURI",
      "outputs": [
        {
          "internalType": "string",
          "name": "",
          "type": "string"
        }
      ],
      "stateMutability": "view",
      "type": "function"
    },
    {
      "inputs": [
        {
          "internalType": "address",
          "name": "owner",
          "type": "address"
        }
      ],
      "name": "tokenURIsOfOwner",
      "outputs": [
        {
          "internalType": "string[]",
          "name": "",
          "type": "string[]"
        }
      ],
      "stateMutability": "view",
      "type": "function"
    },
    {
      "inputs": [
        {
          "internalType": "address",
          "name": "owner",
          "type": "address"
        }
      ],
      "name": "tokensOfOwner",
      "outputs": [
        {
          "internalType": "uint256[]",
          "name": "",
          "type": "uint256[]"
        }
      ],
      "stateMutability": "view",
      "type": "function"
    },
    {
      "inputs": [],
      "name": "totalSupply",
      "outputs": [
        {
          "internalType": "uint256",
          "name": "",
          "type": "uint256"
        }
      ],
      "stateMutability": "view",
      "type": "function"
    },
    {
      "inputs": [
        {
          "internalType": "address",
          "name": "from",
          "type": "address"
        },
        {
          "internalType": "address",
          "name": "to",
          "type": "address"
        },
        {
          "internalType": "uint256",
          "name": "tokenId",
          "type": "uint256"
        }
      ],
      "name": "transferFrom",
      "outputs": [],
      "stateMutability": "nonpayable",
      "type": "function"
    },
    {
      "inputs": [
        {
          "internalType": "address",
          "name": "newOwner",
          "type": "address"
        }
      ],
      "name": "transferOwnership",
      "outputs": [],
      "stateMutability": "nonpayable",
      "type": "function"
    }
  ],
  "bytecode": "0x60e06040526022608081815290611c6160a03960089061001f90826101cf565b5034801561002b575f5ffd5b50604051611c83380380611c8383398101604081905261004a91610289565b806040518060400160405280600a815260200169119a5cda125d0813919560b21b8152506040518060400160405280600481526020016308c92a6960e31b815250815f908161009991906101cf565b5060016100a682826101cf565b5050506001600160a01b0381166100d657604051631e4fbdf760e01b81525f600482015260240160405180910390fd5b6100df816100e6565b50506102b6565b600780546001600160a01b038381166001600160a01b0319831681179093556040519116919082907f8be0079c531659141344cd1fd0a4f28419497f9722a3daafe3b4186f6b6457e0905f90a35050565b634e487b7160e01b5f52604160045260245ffd5b600181811c9082168061015f57607f821691505b60208210810361017d57634e487b7160e01b5f52602260045260245ffd5b50919050565b601f8211156101ca57805f5260205f20601f840160051c810160208510156101a85750805b601f840160051c820191505b818110156101c7575f81556001016101b4565b50505b505050565b81516001600160401b038111156101e8576101e8610137565b6101fc816101f6845461014b565b84610183565b6020601f82116001811461022e575f83156102175750848201515b5f19600385901b1c1916600184901b1784556101c7565b5f84815260208120601f198516915b8281101561025d578785015182556020948501946001909201910161023d565b508482101561027a57868401515f19600387901b60f8161c191681555b50505050600190811b01905550565b5f60208284031215610299575f5ffd5b81516001600160a01b03811681146102af575f5ffd5b9392505050565b61199e806102c35f395ff3fe608060405234801561000f575f5ffd5b5060043610610148575f3560e01c80638da5cb5b116100bf578063cf456ae711610079578063cf456ae7146102c1578063d204c45e146102d4578063d269e129146102e7578063e985e9c5146102ef578063f2fde38b14610302578063f46eccc414610315575f5ffd5b80638da5cb5b1461024f57806395d89b4114610260578063a0e939e914610268578063a22cb46514610288578063b88d4fde1461029b578063c87b56dd146102ae575f5ffd5b806323b872dd1161011057806323b872dd146101db57806342842e0e146101ee5780636352211e1461020157806370a0823114610214578063715018a6146102275780638462151c1461022f575f5ffd5b806301ffc9a71461014c57806306fdde0314610174578063081812fc14610189578063095ea7b3146101b457806318160ddd146101c9575b5f5ffd5b61015f61015a366004611370565b610337565b60405190151581526020015b60405180910390f35b61017c610347565b60405161016b91906113b9565b61019c6101973660046113cb565b6103d6565b6040516001600160a01b03909116815260200161016b565b6101c76101c23660046113f6565b6103fd565b005b6009545b60405190815260200161016b565b6101c76101e9366004611420565b61040c565b6101c76101fc366004611420565b61049a565b61019c61020f3660046113cb565b6104b9565b6101cd61022236600461145e565b6104c3565b6101c7610508565b61024261023d36600461145e565b61051b565b60405161016b9190611479565b6007546001600160a01b031661019c565b61017c610634565b61027b61027636600461145e565b610643565b60405161016b91906114b0565b6101c7610296366004611513565b61078a565b6101c76102a93660046115d9565b610795565b61017c6102bc3660046113cb565b6107ad565b6101c76102cf366004611513565b6107e6565b6101cd6102e2366004611654565b61084c565b61017c610902565b61015f6102fd3660046116b4565b61098e565b6101c761031036600461145e565b6109bb565b61015f61032336600461145e565b600a6020525f908152604090205460ff1681565b5f610341826109f8565b92915050565b60605f8054610355906116e0565b80601f0160208091040260200160405190810160405280929190818152602001828054610381906116e0565b80156103cc5780601f106103a3576101008083540402835291602001916103cc565b820191905f5260205f20905b8154815290600101906020018083116103af57829003601f168201915b5050505050905090565b5f6103e082610a1c565b505f828152600460205260409020546001600160a01b0316610341565b610408828233610a54565b5050565b6001600160a01b03821661043a57604051633250574960e11b81525f60048201526024015b60405180910390fd5b5f610446838333610a61565b9050836001600160a01b0316816001600160a01b031614610494576040516364283d7b60e01b81526001600160a01b0380861660048301526024820184905282166044820152606401610431565b50505050565b6104b483838360405180602001604052805f815250610795565b505050565b5f61034182610a1c565b5f6001600160a01b0382166104ed576040516322718ad960e21b81525f6004820152602401610431565b506001600160a01b03165f9081526003602052604090205490565b610510610b53565b6105195f610b80565b565b6009546060905f61052b846104c3565b90505f8167ffffffffffffffff8111156105475761054761154e565b604051908082528060200260200182016040528015610570578160200160208202803683370190505b5090505f805b84811015610629576040516331a9108f60e11b8152600481018290523090636352211e90602401602060405180830381865afa9250505080156105d6575060408051601f3d908101601f191682019092526105d391810190611718565b60015b1561062157876001600160a01b0316816001600160a01b03160361061f5781848461060081611733565b95508151811061061257610612611757565b6020026020010181815250505b505b600101610576565b509095945050505050565b606060018054610355906116e0565b6009546060905f610653846104c3565b90505f8167ffffffffffffffff81111561066f5761066f61154e565b6040519080825280602002602001820160405280156106a257816020015b606081526020019060019003908161068d5790505b5090505f805b84811015610629576040516331a9108f60e11b8152600481018290523090636352211e90602401602060405180830381865afa925050508015610708575060408051601f3d908101601f1916820190925261070591810190611718565b60015b1561078257876001600160a01b0316816001600160a01b031603610780575f61073083610bd1565b9050600881604051602001610746929190611782565b60405160208183030381529060405285858061076190611733565b96508151811061077357610773611757565b6020026020010181905250505b505b6001016106a8565b610408338383610cdc565b6107a084848461040c565b6104943385858585610d7a565b60605f6107b983610bd1565b90506008816040516020016107cf929190611782565b604051602081830303815290604052915050919050565b6107ee610b53565b6001600160a01b0382165f818152600a6020908152604091829020805460ff191685151590811790915591519182527f583b0aa0e528532caf4b907c11d7a8158a122fe2a6fb80cd9b09776ebea8d92d910160405180910390a25050565b5f61085f6007546001600160a01b031690565b6001600160a01b0316336001600160a01b0316148061088c5750335f908152600a602052604090205460ff165b6108d15760405162461bcd60e51b8152602060048201526016602482015275139bdd08185d5d1a1bdc9a5e9959081d1bc81b5a5b9d60521b6044820152606401610431565b600980545f91826108e183611733565b9190505590506108f18482610ea2565b6108fb8184610ebb565b9392505050565b6008805461090f906116e0565b80601f016020809104026020016040519081016040528092919081815260200182805461093b906116e0565b80156109865780601f1061095d57610100808354040283529160200191610986565b820191905f5260205f20905b81548152906001019060200180831161096957829003601f168201915b505050505081565b6001600160a01b039182165f90815260056020908152604080832093909416825291909152205460ff1690565b6109c3610b53565b6001600160a01b0381166109ec57604051631e4fbdf760e01b81525f6004820152602401610431565b6109f581610b80565b50565b5f6001600160e01b03198216632483248360e11b1480610341575061034182610f0a565b5f818152600260205260408120546001600160a01b03168061034157604051637e27328960e01b815260048101849052602401610431565b6104b48383836001610f59565b5f828152600260205260408120546001600160a01b0390811690831615610a8d57610a8d81848661105d565b6001600160a01b03811615610ac757610aa85f855f5f610f59565b6001600160a01b0381165f90815260036020526040902080545f190190555b6001600160a01b03851615610af5576001600160a01b0385165f908152600360205260409020805460010190555b5f8481526002602052604080822080546001600160a01b0319166001600160a01b0389811691821790925591518793918516917fddf252ad1be2c89b69c2b068fc378daa952ba7f163c4a11628f55a4df523b3ef91a4949350505050565b6007546001600160a01b031633146105195760405163118cdaa760e01b8152336004820152602401610431565b600780546001600160a01b038381166001600160a01b0319831681179093556040519116919082907f8be0079c531659141344cd1fd0a4f28419497f9722a3daafe3b4186f6b6457e0905f90a35050565b6060610bdc82610a1c565b505f8281526006602052604081208054610bf5906116e0565b80601f0160208091040260200160405190810160405280929190818152602001828054610c21906116e0565b8015610c6c5780601f10610c4357610100808354040283529160200191610c6c565b820191905f5260205f20905b815481529060010190602001808311610c4f57829003601f168201915b505050505090505f610c8860408051602081019091525f815290565b905080515f03610c99575092915050565b815115610ccb578082604051602001610cb39291906117fe565b60405160208183030381529060405292505050919050565b610cd4846110c1565b949350505050565b6001600160a01b038216610d0e57604051630b61174360e31b81526001600160a01b0383166004820152602401610431565b6001600160a01b038381165f81815260056020908152604080832094871680845294825291829020805460ff191686151590811790915591519182527f17307eab39ab6107e8899845ad3d59bd9653f200f220920489ca2b5937696c31910160405180910390a3505050565b6001600160a01b0383163b15610e9b57604051630a85bd0160e11b81526001600160a01b0384169063150b7a0290610dbc908890889087908790600401611812565b6020604051808303815f875af1925050508015610df6575060408051601f3d908101601f19168201909252610df39181019061184e565b60015b610e5d573d808015610e23576040519150601f19603f3d011682016040523d82523d5f602084013e610e28565b606091505b5080515f03610e5557604051633250574960e11b81526001600160a01b0385166004820152602401610431565b805160208201fd5b6001600160e01b03198116630a85bd0160e11b14610e9957604051633250574960e11b81526001600160a01b0385166004820152602401610431565b505b5050505050565b610408828260405180602001604052805f81525061111b565b5f828152600660205260409020610ed282826118ad565b506040518281527ff8e1a15aba9398e019f0b49df1a4fde98ee17ae345cb5f6b5e2c27f5033e8ce79060200160405180910390a15050565b5f6001600160e01b031982166380ac58cd60e01b1480610f3a57506001600160e01b03198216635b5e139f60e01b145b8061034157506301ffc9a760e01b6001600160e01b0319831614610341565b8080610f6d57506001600160a01b03821615155b1561102e575f610f7c84610a1c565b90506001600160a01b03831615801590610fa85750826001600160a01b0316816001600160a01b031614155b8015610fbb5750610fb9818461098e565b155b15610fe45760405163a9fbf51f60e01b81526001600160a01b0384166004820152602401610431565b811561102c5783856001600160a01b0316826001600160a01b03167f8c5be1e5ebec7d5bd14f71427d1e84f3dd0314c0f7b2291e5b200ac8c7c3b92560405160405180910390a45b505b50505f90815260046020526040902080546001600160a01b0319166001600160a01b0392909216919091179055565b611068838383611132565b6104b4576001600160a01b03831661109657604051637e27328960e01b815260048101829052602401610431565b60405163177e802f60e01b81526001600160a01b038316600482015260248101829052604401610431565b60606110cc82610a1c565b505f6110e260408051602081019091525f815290565b90505f8151116111005760405180602001604052805f8152506108fb565b8061110a84611193565b6040516020016107cf9291906117fe565b6111258383611223565b6104b4335f858585610d7a565b5f6001600160a01b03831615801590610cd45750826001600160a01b0316846001600160a01b0316148061116b575061116b848461098e565b80610cd45750505f908152600460205260409020546001600160a01b03908116911614919050565b60605f61119f83611284565b60010190505f8167ffffffffffffffff8111156111be576111be61154e565b6040519080825280601f01601f1916602001820160405280156111e8576020820181803683370190505b5090508181016020015b5f19016f181899199a1a9b1b9c1cb0b131b232b360811b600a86061a8153600a85049450846111f257509392505050565b6001600160a01b03821661124c57604051633250574960e11b81525f6004820152602401610431565b5f61125883835f610a61565b90506001600160a01b038116156104b4576040516339e3563760e11b81525f6004820152602401610431565b5f8072184f03e93ff9f4daa797ed6e38ed64bf6a1f0160401b83106112c25772184f03e93ff9f4daa797ed6e38ed64bf6a1f0160401b830492506040015b6d04ee2d6d415b85acef810000000083106112ee576d04ee2d6d415b85acef8100000000830492506020015b662386f26fc10000831061130c57662386f26fc10000830492506010015b6305f5e1008310611324576305f5e100830492506008015b612710831061133857612710830492506004015b6064831061134a576064830492506002015b600a83106103415760010192915050565b6001600160e01b0319811681146109f5575f5ffd5b5f60208284031215611380575f5ffd5b81356108fb8161135b565b5f81518084528060208401602086015e5f602082860101526020601f19601f83011685010191505092915050565b602081525f6108fb602083018461138b565b5f602082840312156113db575f5ffd5b5035919050565b6001600160a01b03811681146109f5575f5ffd5b5f5f60408385031215611407575f5ffd5b8235611412816113e2565b946020939093013593505050565b5f5f5f60608486031215611432575f5ffd5b833561143d816113e2565b9250602084013561144d816113e2565b929592945050506040919091013590565b5f6020828403121561146e575f5ffd5b81356108fb816113e2565b602080825282518282018190525f918401906040840190835b81811015610629578351835260209384019390920191600101611492565b5f602082016020835280845180835260408501915060408160051b8601019250602086015f5b8281101561150757603f198786030184526114f285835161138b565b945060209384019391909101906001016114d6565b50929695505050505050565b5f5f60408385031215611524575f5ffd5b823561152f816113e2565b915060208301358015158114611543575f5ffd5b809150509250929050565b634e487b7160e01b5f52604160045260245ffd5b5f5f67ffffffffffffffff84111561157c5761157c61154e565b50604051601f19601f85018116603f0116810181811067ffffffffffffffff821117156115ab576115ab61154e565b6040528381529050808284018510156115c2575f5ffd5b838360208301375f60208583010152509392505050565b5f5f5f5f608085870312156115ec575f5ffd5b84356115f7816113e2565b93506020850135611607816113e2565b925060408501359150606085013567ffffffffffffffff811115611629575f5ffd5b8501601f81018713611639575f5ffd5b61164887823560208401611562565b91505092959194509250565b5f5f60408385031215611665575f5ffd5b8235611670816113e2565b9150602083013567ffffffffffffffff81111561168b575f5ffd5b8301601f8101851361169b575f5ffd5b6116aa85823560208401611562565b9150509250929050565b5f5f604083850312156116c5575f5ffd5b82356116d0816113e2565b91506020830135611543816113e2565b600181811c908216806116f457607f821691505b60208210810361171257634e487b7160e01b5f52602260045260245ffd5b50919050565b5f60208284031215611728575f5ffd5b81516108fb816113e2565b5f6001820161175057634e487b7160e01b5f52601160045260245ffd5b5060010190565b634e487b7160e01b5f52603260045260245ffd5b5f81518060208401855e5f93019283525090919050565b5f5f845461178f816116e0565b6001821680156117a657600181146117bb576117e8565b60ff19831686528115158202860193506117e8565b875f5260205f205f5b838110156117e0578154888201526001909101906020016117c4565b505081860193505b5050506117f5818561176b565b95945050505050565b5f610cd461180c838661176b565b8461176b565b6001600160a01b03858116825284166020820152604081018390526080606082018190525f906118449083018461138b565b9695505050505050565b5f6020828403121561185e575f5ffd5b81516108fb8161135b565b601f8211156104b457805f5260205f20601f840160051c8101602085101561188e5750805b601f840160051c820191505b81811015610e9b575f815560010161189a565b815167ffffffffffffffff8111156118c7576118c761154e565b6118db816118d584546116e0565b84611869565b6020601f82116001811461190d575f83156118f65750848201515b5f19600385901b1c1916600184901b178455610e9b565b5f84815260208120601f198516915b8281101561193c578785015182556020948501946001909201910161191c565b508482101561195957868401515f19600387901b60f8161c191681555b50505050600190811b0190555056fea26469706673582212203c3bb62bf476336d2d41198a6f811760fbb8e5b243a6ab85a71bdf3428590e7164736f6c634300081e003368747470733a2f2f676174657761792e70696e6174612e636c6f75642f697066732f",
  "linkReferences": {},
  "deployedLinkReferences": {},
  "immutableReferences": {},
  "inputSourceName": "project/contracts/FishItNFT.sol",
  "buildInfoId": "solc-0_8_30-845f3067697c8d68900597dd97bcfc6096aae6bc"
}