{
  "_format": "hh3-artifact-1",
  "contractName": "FishItBaitShop",
  "sourceName": "contracts/FishItBaitShop.sol",
  "abi": [
    {
      "inputs": [
        {
          "internalType": "address",
          "name": "fshtAddr",
          "type": "address"
        },
        {
          "internalType": "address",
          "name": "initialOwner",
          "type": "address"
        }
      ],
      "stateMutability": "nonpayable",
      "type": "constructor"
    },
    {
      "inputs": [
        {
          "internalType": "address",
          "name": "owner",
          "type": "address"
        }
      ],
      "name": "OwnableInvalidOwner",
      "type": "error"
    },
    {
      "inputs": [
        {
          "internalType": "address",
          "name": "account",
          "type": "address"
        }
      ],
      "name": "OwnableUnauthorizedAccount",
      "type": "error"
    },
    {
      "anonymous": false,
      "inputs": [
        {
          "indexed": true,
          "internalType": "address",
          "name": "user",
          "type": "address"
        },
        {
          "indexed": false,
          "internalType": "enum FishItTypes.BaitType",
          "name": "baitType",
          "type": "uint8"
        },
        {
          "indexed": true,
          "internalType": "address",
          "name": "consumer",
          "type": "address"
        }
      ],
      "name": "BaitConsumed",
      "type": "event"
    },
    {
      "anonymous": false,
      "inputs": [
        {
          "indexed": true,
          "internalType": "address",
          "name": "user",
          "type": "address"
        },
        {
          "indexed": false,
          "internalType": "enum FishItTypes.BaitType",
          "name": "baitType",
          "type": "uint8"
        },
        {
          "indexed": false,
          "internalType": "uint256",
          "name": "quantity",
          "type": "uint256"
        },
        {
          "indexed": false,
          "internalType": "uint256",
          "name": "totalCost",
          "type": "uint256"
        }
      ],
      "name": "BaitPurchased",
      "type": "event"
    },
    {
      "anonymous": false,
      "inputs": [
        {
          "indexed": true,
          "internalType": "address",
          "name": "consumer",
          "type": "address"
        },
        {
          "indexed": false,
          "internalType": "bool",
          "name": "status",
          "type": "bool"
        }
      ],
      "name": "ConsumerSet",
      "type": "event"
    },
    {
      "anonymous": false,
      "inputs": [
        {
          "indexed": true,
          "internalType": "address",
          "name": "previousOwner",
          "type": "address"
        },
        {
          "indexed": true,
          "internalType": "address",
          "name": "newOwner",
          "type": "address"
        }
      ],
      "name": "OwnershipTransferred",
      "type": "event"
    },
    {
      "inputs": [
        {
          "internalType": "address",
          "name": "",
          "type": "address"
        },
        {
          "internalType": "enum FishItTypes.BaitType",
          "name": "",
          "type": "uint8"
        }
      ],
      "name": "baitInventory",
      "outputs": [
        {
          "internalType": "uint256",
          "name": "",
          "type": "uint256"
        }
      ],
      "stateMutability": "view",
      "type": "function"
    },
    {
      "inputs": [
        {
          "internalType": "enum FishItTypes.BaitType",
          "name": "baitType",
          "type": "uint8"
        },
        {
          "internalType": "uint256",
          "name": "quantity",
          "type": "uint256"
        }
      ],
      "name": "buyBait",
      "outputs": [],
      "stateMutability": "nonpayable",
      "type": "function"
    },
    {
      "inputs": [
        {
          "internalType": "address",
          "name": "user",
          "type": "address"
        },
        {
          "internalType": "enum FishItTypes.BaitType",
          "name": "baitType",
          "type": "uint8"
        }
      ],
      "name": "consumeBait",
      "outputs": [],
      "stateMutability": "nonpayable",
      "type": "function"
    },
    {
      "inputs": [
        {
          "internalType": "address",
          "name": "",
          "type": "address"
        }
      ],
      "name": "consumers",
      "outputs": [
        {
          "internalType": "bool",
          "name": "",
          "type": "bool"
        }
      ],
      "stateMutability": "view",
      "type": "function"
    },
    {
      "inputs": [],
      "name": "fsht",
      "outputs": [
        {
          "internalType": "contract IERC20",
          "name": "",
          "type": "address"
        }
      ],
      "stateMutability": "view",
      "type": "function"
    },
    {
      "inputs": [
        {
          "internalType": "address",
          "name": "user",
          "type": "address"
        },
        {
          "internalType": "enum FishItTypes.BaitType",
          "name": "baitType",
          "type": "uint8"
        }
      ],
      "name": "getBaitInventory",
      "outputs": [
        {
          "internalType": "uint256",
          "name": "",
          "type": "uint256"
        }
      ],
      "stateMutability": "view",
      "type": "function"
    },
    {
      "inputs": [
        {
          "internalType": "enum FishItTypes.BaitType",
          "name": "baitType",
          "type": "uint8"
        }
      ],
      "name": "getBaitPrice",
      "outputs": [
        {
          "internalType": "uint256",
          "name": "",
          "type": "uint256"
        }
      ],
      "stateMutability": "view",
      "type": "function"
    },
    {
      "inputs": [],
      "name": "owner",
      "outputs": [
        {
          "internalType": "address",
          "name": "",
          "type": "address"
        }
      ],
      "stateMutability": "view",
      "type": "function"
    },
    {
      "inputs": [],
      "name": "prices",
      "outputs": [
        {
          "internalType": "uint256",
          "name": "common",
          "type": "uint256"
        },
        {
          "internalType": "uint256",
          "name": "rare",
          "type": "uint256"
        },
        {
          "internalType": "uint256",
          "name": "epic",
          "type": "uint256"
        },
        {
          "internalType": "uint256",
          "name": "legendary",
          "type": "uint256"
        }
      ],
      "stateMutability": "view",
      "type": "function"
    },
    {
      "inputs": [],
      "name": "renounceOwnership",
      "outputs": [],
      "stateMutability": "nonpayable",
      "type": "function"
    },
    {
      "inputs": [
        {
          "internalType": "address",
          "name": "consumer",
          "type": "address"
        },
        {
          "internalType": "bool",
          "name": "status",
          "type": "bool"
        }
      ],
      "name": "setConsumer",
      "outputs": [],
      "stateMutability": "nonpayable",
      "type": "function"
    },
    {
      "inputs": [
        {
          "internalType": "address",
          "name": "newOwner",
          "type": "address"
        }
      ],
      "name": "transferOwnership",
      "outputs": [],
      "stateMutability": "nonpayable",
      "type": "function"
    },
    {
      "inputs": [],
      "name": "withdrawFunds",
      "outputs": [],
      "stateMutability": "nonpayable",
      "type": "function"
    }
  ],
  "bytecode": "0x610100604052670de0b6b3a76400006080819052674563918244f4000060a0819052678ac7230489e8000060c08190526801158e460913d0000060e081905260029390935560039190915560045560055534801561005b575f5ffd5b50604051610c8e380380610c8e83398101604081905261007a91610142565b806001600160a01b0381166100a857604051631e4fbdf760e01b81525f600482015260240160405180910390fd5b6100b1816100d8565b5050600180546001600160a01b0319166001600160a01b0392909216919091179055610173565b5f80546001600160a01b038381166001600160a01b0319831681178455604051919092169283917f8be0079c531659141344cd1fd0a4f28419497f9722a3daafe3b4186f6b6457e09190a35050565b80516001600160a01b038116811461013d575f5ffd5b919050565b5f5f60408385031215610153575f5ffd5b61015c83610127565b915061016a60208401610127565b90509250929050565b610b0e806101805f395ff3fe608060405234801561000f575f5ffd5b50600436106100cb575f3560e01c80634113fea7116100885780638da5cb5b116100635780638da5cb5b146101c7578063a918aa75146101d7578063d3419bf3146101ea578063f2fde38b14610220575f5ffd5b80634113fea7146101995780635c5eed74146101ac578063715018a6146101bf575f5ffd5b806302c9ef45146100cf5780630be79647146100e45780630bf536681461012157806324600fc3146101535780632cd6a7f91461015b57806339702eee1461016e575b5f5ffd5b6100e26100dd36600461091f565b610233565b005b61010e6100f2366004610962565b600660209081525f928352604080842090915290825290205481565b6040519081526020015b60405180910390f35b61014361012f366004610993565b60076020525f908152604090205460ff1681565b6040519015158152602001610118565b6100e2610299565b6100e26101693660046109b3565b6103e4565b600154610181906001600160a01b031681565b6040516001600160a01b039091168152602001610118565b61010e6101a73660046109db565b61058e565b6100e26101ba366004610962565b61064e565b6100e26107dd565b5f546001600160a01b0316610181565b61010e6101e5366004610962565b6107f0565b6002546003546004546005546102009392919084565b604080519485526020850193909352918301526060820152608001610118565b6100e261022e366004610993565b610842565b61023b61087c565b6001600160a01b0382165f81815260076020908152604091829020805460ff191685151590811790915591519182527f8253cfa2cc4a9f5a344dc3f0d0d7a5ff75b0fbcf840f1ad58f1ebff40745d832910160405180910390a25050565b6102a161087c565b6001546040516370a0823160e01b81523060048201525f916001600160a01b0316906370a0823190602401602060405180830381865afa1580156102e7573d5f5f3e3d5ffd5b505050506040513d601f19601f8201168201806040525081019061030b91906109f4565b6001549091506001600160a01b031663a9059cbb6103305f546001600160a01b031690565b6040516001600160e01b031960e084901b1681526001600160a01b039091166004820152602481018490526044016020604051808303815f875af115801561037a573d5f5f3e3d5ffd5b505050506040513d601f19601f8201168201806040525081019061039e9190610a0b565b6103e15760405162461bcd60e51b815260206004820152600f60248201526e15da5d1a191c985dc819985a5b1959608a1b60448201526064015b60405180910390fd5b50565b5f811161042a5760405162461bcd60e51b815260206004820152601460248201527305175616e74697479206d757374206265203e20360641b60448201526064016103d8565b5f6104348361058e565b90505f6104418383610a3a565b6001546040516323b872dd60e01b8152336004820152306024820152604481018390529192506001600160a01b0316906323b872dd906064016020604051808303815f875af1158015610496573d5f5f3e3d5ffd5b505050506040513d601f19601f820116820180604052508101906104ba9190610a0b565b6104f75760405162461bcd60e51b815260206004820152600e60248201526d14185e5b595b9d0819985a5b195960921b60448201526064016103d8565b335f908152600660205260408120849186600381111561051957610519610a51565b600381111561052a5761052a610a51565b81526020019081526020015f205f8282546105459190610a65565b909155505060405133907f754bb696311248c6e1c5a23ddf45cfe4d1902c64e99bcf1d210fc28dfebfad409061058090879087908690610a98565b60405180910390a250505050565b5f808260038111156105a2576105a2610a51565b036105af57505060025490565b60018260038111156105c3576105c3610a51565b036105d057505060035490565b60028260038111156105e4576105e4610a51565b036105f157505060045490565b600382600381111561060557610605610a51565b0361061257505060055490565b60405162461bcd60e51b8152602060048201526011602482015270496e76616c69642062616974207479706560781b60448201526064016103d8565b335f9081526007602052604090205460ff166106ac5760405162461bcd60e51b815260206004820152601760248201527f4e6f7420617574686f72697a656420636f6e73756d657200000000000000000060448201526064016103d8565b6001600160a01b0382165f908152600660205260408120818360038111156106d6576106d6610a51565b60038111156106e7576106e7610a51565b81526020019081526020015f2054116107375760405162461bcd60e51b81526020600482015260126024820152714e6f206261697420746f20636f6e73756d6560701b60448201526064016103d8565b6001600160a01b0382165f90815260066020526040812060019183600381111561076357610763610a51565b600381111561077457610774610a51565b81526020019081526020015f205f82825461078f9190610ab7565b909155505060405133906001600160a01b038416907f1ce579e44f891c695182e050fb16a851a85bd9e0991f32ebbd33756cfaf26b2a906107d1908590610aca565b60405180910390a35050565b6107e561087c565b6107ee5f6108a8565b565b6001600160a01b0382165f9081526006602052604081208183600381111561081a5761081a610a51565b600381111561082b5761082b610a51565b81526020019081526020015f205490505b92915050565b61084a61087c565b6001600160a01b03811661087357604051631e4fbdf760e01b81525f60048201526024016103d8565b6103e1816108a8565b5f546001600160a01b031633146107ee5760405163118cdaa760e01b81523360048201526024016103d8565b5f80546001600160a01b038381166001600160a01b0319831681178455604051919092169283917f8be0079c531659141344cd1fd0a4f28419497f9722a3daafe3b4186f6b6457e09190a35050565b80356001600160a01b038116811461090d575f5ffd5b919050565b80151581146103e1575f5ffd5b5f5f60408385031215610930575f5ffd5b610939836108f7565b9150602083013561094981610912565b809150509250929050565b80356004811061090d575f5ffd5b5f5f60408385031215610973575f5ffd5b61097c836108f7565b915061098a60208401610954565b90509250929050565b5f602082840312156109a3575f5ffd5b6109ac826108f7565b9392505050565b5f5f604083850312156109c4575f5ffd5b6109cd83610954565b946020939093013593505050565b5f602082840312156109eb575f5ffd5b6109ac82610954565b5f60208284031215610a04575f5ffd5b5051919050565b5f60208284031215610a1b575f5ffd5b81516109ac81610912565b634e487b7160e01b5f52601160045260245ffd5b808202811582820484141761083c5761083c610a26565b634e487b7160e01b5f52602160045260245ffd5b8082018082111561083c5761083c610a26565b60048110610a9457634e487b7160e01b5f52602160045260245ffd5b9052565b60608101610aa68286610a78565b602082019390935260400152919050565b8181038181111561083c5761083c610a26565b6020810161083c8284610a7856fea2646970667358221220a6868b2d6f5fa7cf68d6796e7e00d61dd4712f5e1fd7a413ad09f3df9085d46064736f6c634300081e0033",
  "linkReferences": {},
  "deployedLinkReferences": {},
  "immutableReferences": {},
  "inputSourceName": "project/contracts/FishItBaitShop.sol",
  "buildInfoId": "solc-0_8_30-ace163411a1af47cc625abf4f3605e9f692aaaf2"
}